{
  "contractName": "LadybugMinter",
  "abi": [
    {
      "anonymous": false,
      "inputs": [
        {
          "indexed": true,
          "internalType": "address",
          "name": "owner",
          "type": "address"
        },
        {
          "indexed": true,
          "internalType": "address",
          "name": "approved",
          "type": "address"
        },
        {
          "indexed": true,
          "internalType": "uint256",
          "name": "tokenId",
          "type": "uint256"
        }
      ],
      "name": "Approval",
      "type": "event"
    },
    {
      "anonymous": false,
      "inputs": [
        {
          "indexed": true,
          "internalType": "address",
          "name": "owner",
          "type": "address"
        },
        {
          "indexed": true,
          "internalType": "address",
          "name": "operator",
          "type": "address"
        },
        {
          "indexed": false,
          "internalType": "bool",
          "name": "approved",
          "type": "bool"
        }
      ],
      "name": "ApprovalForAll",
      "type": "event"
    },
    {
      "anonymous": false,
      "inputs": [
        {
          "indexed": true,
          "internalType": "address",
          "name": "previousOwner",
          "type": "address"
        },
        {
          "indexed": true,
          "internalType": "address",
          "name": "newOwner",
          "type": "address"
        }
      ],
      "name": "OwnershipTransferred",
      "type": "event"
    },
    {
      "anonymous": false,
      "inputs": [
        {
          "indexed": true,
          "internalType": "address",
          "name": "from",
          "type": "address"
        },
        {
          "indexed": true,
          "internalType": "address",
          "name": "to",
          "type": "address"
        },
        {
          "indexed": true,
          "internalType": "uint256",
          "name": "tokenId",
          "type": "uint256"
        }
      ],
      "name": "Transfer",
      "type": "event"
    },
    {
      "inputs": [
        {
          "internalType": "address",
          "name": "to",
          "type": "address"
        },
        {
          "internalType": "uint256",
          "name": "tokenId",
          "type": "uint256"
        }
      ],
      "name": "approve",
      "outputs": [],
      "stateMutability": "nonpayable",
      "type": "function"
    },
    {
      "inputs": [],
      "name": "balanceInContract",
      "outputs": [
        {
          "internalType": "uint256",
          "name": "",
          "type": "uint256"
        }
      ],
      "stateMutability": "view",
      "type": "function",
      "constant": true
    },
    {
      "inputs": [
        {
          "internalType": "address",
          "name": "owner",
          "type": "address"
        }
      ],
      "name": "balanceOf",
      "outputs": [
        {
          "internalType": "uint256",
          "name": "",
          "type": "uint256"
        }
      ],
      "stateMutability": "view",
      "type": "function",
      "constant": true
    },
    {
      "inputs": [
        {
          "internalType": "uint8",
          "name": "index",
          "type": "uint8"
        },
        {
          "internalType": "uint256",
          "name": "price",
          "type": "uint256"
        }
      ],
      "name": "dropPrice",
      "outputs": [],
      "stateMutability": "nonpayable",
      "type": "function"
    },
    {
      "inputs": [
        {
          "internalType": "uint256",
          "name": "tokenId",
          "type": "uint256"
        }
      ],
      "name": "getApproved",
      "outputs": [
        {
          "internalType": "address",
          "name": "",
          "type": "address"
        }
      ],
      "stateMutability": "view",
      "type": "function",
      "constant": true
    },
    {
      "inputs": [],
      "name": "getDrops",
      "outputs": [
        {
          "components": [
            {
              "internalType": "uint256",
              "name": "price",
              "type": "uint256"
            },
            {
              "internalType": "uint256",
              "name": "date",
              "type": "uint256"
            },
            {
              "internalType": "uint256",
              "name": "priceDate",
              "type": "uint256"
            },
            {
              "internalType": "uint16",
              "name": "startAtIndex",
              "type": "uint16"
            }
          ],
          "internalType": "struct LadybugFactory.Drop[]",
          "name": "",
          "type": "tuple[]"
        }
      ],
      "stateMutability": "view",
      "type": "function",
      "constant": true
    },
    {
      "inputs": [
        {
          "internalType": "address",
          "name": "bugOwner",
          "type": "address"
        }
      ],
      "name": "getLadybugIdsByOwner",
      "outputs": [
        {
          "internalType": "uint256[]",
          "name": "",
          "type": "uint256[]"
        }
      ],
      "stateMutability": "view",
      "type": "function",
      "constant": true
    },
    {
      "inputs": [],
      "name": "getLadybugRoyaltyInfo",
      "outputs": [
        {
          "internalType": "address",
          "name": "receiver",
          "type": "address"
        },
        {
          "internalType": "uint16",
          "name": "basis",
          "type": "uint16"
        }
      ],
      "stateMutability": "view",
      "type": "function",
      "constant": true
    },
    {
      "inputs": [
        {
          "internalType": "address",
          "name": "owner",
          "type": "address"
        },
        {
          "internalType": "address",
          "name": "operator",
          "type": "address"
        }
      ],
      "name": "isApprovedForAll",
      "outputs": [
        {
          "internalType": "bool",
          "name": "",
          "type": "bool"
        }
      ],
      "stateMutability": "view",
      "type": "function",
      "constant": true
    },
    {
      "inputs": [],
      "name": "name",
      "outputs": [
        {
          "internalType": "string",
          "name": "",
          "type": "string"
        }
      ],
      "stateMutability": "view",
      "type": "function",
      "constant": true
    },
    {
      "inputs": [],
      "name": "owner",
      "outputs": [
        {
          "internalType": "address",
          "name": "",
          "type": "address"
        }
      ],
      "stateMutability": "view",
      "type": "function",
      "constant": true
    },
    {
      "inputs": [
        {
          "internalType": "uint256",
          "name": "tokenId",
          "type": "uint256"
        }
      ],
      "name": "ownerOf",
      "outputs": [
        {
          "internalType": "address",
          "name": "",
          "type": "address"
        }
      ],
      "stateMutability": "view",
      "type": "function",
      "constant": true
    },
    {
      "inputs": [],
      "name": "renounceOwnership",
      "outputs": [],
      "stateMutability": "nonpayable",
      "type": "function"
    },
    {
      "inputs": [
        {
          "internalType": "uint256",
          "name": "_tokenId",
          "type": "uint256"
        },
        {
          "internalType": "uint256",
          "name": "_salePrice",
          "type": "uint256"
        }
      ],
      "name": "royaltyInfo",
      "outputs": [
        {
          "internalType": "address",
          "name": "receiver",
          "type": "address"
        },
        {
          "internalType": "uint256",
          "name": "royaltyAmount",
          "type": "uint256"
        }
      ],
      "stateMutability": "view",
      "type": "function",
      "constant": true
    },
    {
      "inputs": [
        {
          "internalType": "address",
          "name": "from",
          "type": "address"
        },
        {
          "internalType": "address",
          "name": "to",
          "type": "address"
        },
        {
          "internalType": "uint256",
          "name": "tokenId",
          "type": "uint256"
        }
      ],
      "name": "safeTransferFrom",
      "outputs": [],
      "stateMutability": "nonpayable",
      "type": "function"
    },
    {
      "inputs": [
        {
          "internalType": "address",
          "name": "from",
          "type": "address"
        },
        {
          "internalType": "address",
          "name": "to",
          "type": "address"
        },
        {
          "internalType": "uint256",
          "name": "tokenId",
          "type": "uint256"
        },
        {
          "internalType": "bytes",
          "name": "_data",
          "type": "bytes"
        }
      ],
      "name": "safeTransferFrom",
      "outputs": [],
      "stateMutability": "nonpayable",
      "type": "function"
    },
    {
      "inputs": [
        {
          "internalType": "address",
          "name": "operator",
          "type": "address"
        },
        {
          "internalType": "bool",
          "name": "approved",
          "type": "bool"
        }
      ],
      "name": "setApprovalForAll",
      "outputs": [],
      "stateMutability": "nonpayable",
      "type": "function"
    },
    {
      "inputs": [
        {
          "internalType": "address",
          "name": "_recipient",
          "type": "address"
        },
        {
          "internalType": "uint16",
          "name": "_basis",
          "type": "uint16"
        }
      ],
      "name": "setLadybugRoyaltyInfo",
      "outputs": [],
      "stateMutability": "nonpayable",
      "type": "function"
    },
    {
      "inputs": [],
      "name": "status",
      "outputs": [
        {
          "internalType": "uint256",
          "name": "index",
          "type": "uint256"
        },
        {
          "internalType": "bool",
          "name": "active",
          "type": "bool"
        },
        {
          "internalType": "bool",
          "name": "complete",
          "type": "bool"
        }
      ],
      "stateMutability": "view",
      "type": "function",
      "constant": true
    },
    {
      "inputs": [
        {
          "internalType": "bytes4",
          "name": "interfaceId",
          "type": "bytes4"
        }
      ],
      "name": "supportsInterface",
      "outputs": [
        {
          "internalType": "bool",
          "name": "",
          "type": "bool"
        }
      ],
      "stateMutability": "view",
      "type": "function",
      "constant": true
    },
    {
      "inputs": [],
      "name": "symbol",
      "outputs": [
        {
          "internalType": "string",
          "name": "",
          "type": "string"
        }
      ],
      "stateMutability": "view",
      "type": "function",
      "constant": true
    },
    {
      "inputs": [
        {
          "internalType": "uint256",
          "name": "tokenId",
          "type": "uint256"
        }
      ],
      "name": "tokenURI",
      "outputs": [
        {
          "internalType": "string",
          "name": "",
          "type": "string"
        }
      ],
      "stateMutability": "view",
      "type": "function",
      "constant": true
    },
    {
      "inputs": [],
      "name": "tokensPerDrop",
      "outputs": [
        {
          "internalType": "uint16",
          "name": "",
          "type": "uint16"
        }
      ],
      "stateMutability": "pure",
      "type": "function",
      "constant": true
    },
    {
      "inputs": [],
      "name": "totalSupply",
      "outputs": [
        {
          "internalType": "uint16",
          "name": "",
          "type": "uint16"
        }
      ],
      "stateMutability": "pure",
      "type": "function",
      "constant": true
    },
    {
      "inputs": [
        {
          "internalType": "address",
          "name": "from",
          "type": "address"
        },
        {
          "internalType": "address",
          "name": "to",
          "type": "address"
        },
        {
          "internalType": "uint256",
          "name": "tokenId",
          "type": "uint256"
        }
      ],
      "name": "transferFrom",
      "outputs": [],
      "stateMutability": "nonpayable",
      "type": "function"
    },
    {
      "inputs": [
        {
          "internalType": "address",
          "name": "newOwner",
          "type": "address"
        }
      ],
      "name": "transferOwnership",
      "outputs": [],
      "stateMutability": "nonpayable",
      "type": "function"
    },
    {
      "inputs": [
        {
          "internalType": "uint8",
          "name": "index",
          "type": "uint8"
        },
        {
          "internalType": "uint256",
          "name": "price",
          "type": "uint256"
        },
        {
          "internalType": "uint256",
          "name": "date",
          "type": "uint256"
        }
      ],
      "name": "updateDrop",
      "outputs": [],
      "stateMutability": "nonpayable",
      "type": "function"
    },
    {
      "inputs": [
        {
          "internalType": "uint256",
          "name": "balance",
          "type": "uint256"
        }
      ],
      "name": "withdraw",
      "outputs": [
        {
          "internalType": "uint256",
          "name": "",
          "type": "uint256"
        }
      ],
      "stateMutability": "nonpayable",
      "type": "function"
    },
    {
      "inputs": [],
      "name": "withdrawAll",
      "outputs": [
        {
          "internalType": "uint256",
          "name": "",
          "type": "uint256"
        }
      ],
      "stateMutability": "nonpayable",
      "type": "function"
    },
    {
      "inputs": [],
      "name": "initialize",
      "outputs": [],
      "stateMutability": "nonpayable",
      "type": "function"
    },
    {
      "inputs": [],
      "name": "mintStalledDropToOwner",
      "outputs": [],
      "stateMutability": "nonpayable",
      "type": "function"
    },
    {
      "inputs": [],
      "name": "totalMinted",
      "outputs": [
        {
          "internalType": "uint256",
          "name": "",
          "type": "uint256"
        }
      ],
      "stateMutability": "view",
      "type": "function",
      "constant": true
    },
    {
      "inputs": [],
      "name": "unminted",
      "outputs": [
        {
          "internalType": "uint256",
          "name": "",
          "type": "uint256"
        }
      ],
      "stateMutability": "view",
      "type": "function",
      "constant": true
    },
    {
      "inputs": [
        {
          "internalType": "address",
          "name": "recipient",
          "type": "address"
        }
      ],
      "name": "mint",
      "outputs": [
        {
          "internalType": "uint256",
          "name": "",
          "type": "uint256"
        }
      ],
      "stateMutability": "payable",
      "type": "function",
      "payable": true
    },
    {
      "inputs": [],
      "name": "contractURI",
      "outputs": [
        {
          "internalType": "string",
          "name": "",
          "type": "string"
        }
      ],
      "stateMutability": "pure",
      "type": "function",
      "constant": true
    }
  ],
  "bytecode": "0x6080604052600780546001600160a01b031916733254c065f85167003f165e134a391a6ec2c2627917905560198054607d60a11b61ffff60a01b199091161790553480156200004d57600080fd5b506040518060400160405280600d81526020016c2630b23cb13ab3902837bbb2b960991b815250604051806040016040528060078152602001664c41445942554760c81b815250620000ae620000a86200010460201b60201c565b62000108565b8151620000c390600190602085019062000158565b508051620000d990600290602084019062000158565b5050600054601980546001600160a01b0319166001600160a01b03909216919091179055506200023b565b3390565b600080546001600160a01b038381166001600160a01b0319831681178455604051919092169283917f8be0079c531659141344cd1fd0a4f28419497f9722a3daafe3b4186f6b6457e09190a35050565b8280546200016690620001fe565b90600052602060002090601f0160209004810192826200018a5760008555620001d5565b82601f10620001a557805160ff1916838001178555620001d5565b82800160010185558215620001d5579182015b82811115620001d5578251825591602001919060010190620001b8565b50620001e3929150620001e7565b5090565b5b80821115620001e35760008155600101620001e8565b600181811c908216806200021357607f821691505b602082108114156200023557634e487b7160e01b600052602260045260246000fd5b50919050565b612f4a806200024b6000396000f3fe6080604052600436106102345760003560e01c80638129fc1c11610138578063b548ff8d116100b0578063c87b56dd1161007f578063e985e9c511610064578063e985e9c514610649578063f2fde38b14610692578063f925fa87146106b257600080fd5b8063c87b56dd14610614578063e8a3d4851461063457600080fd5b8063b548ff8d14610594578063b88d4fde146105b4578063bcbc9cfd146105d4578063c829bb05146105f457600080fd5b806395d89b41116101075780639caabb2c116100ec5780639caabb2c1461054a578063a22cb4651461055f578063a2309ff81461057f57600080fd5b806395d89b411461052057806399f4a5ab1461053557600080fd5b80638129fc1c146104b6578063853828b6146104cb5780638691afb5146104e05780638da5cb5b1461050257600080fd5b80632e1a7d4d116101cb5780636352211e1161019a57806370a082311161017f57806370a082311461044a578063715018a61461046a578063771919521461047f57600080fd5b80636352211e146104175780636a6278421461043757600080fd5b80632e1a7d4d1461039f57806337321589146103cd57806342842e0e146103e2578063508fb73b1461040257600080fd5b806318160ddd1161020757806318160ddd146102ea578063200d2ed21461030e57806323b872dd146103405780632a55205a1461036057600080fd5b806301ffc9a71461023957806306fdde031461026e578063081812fc14610290578063095ea7b3146102c8575b600080fd5b34801561024557600080fd5b50610259610254366004612844565b6106df565b60405190151581526020015b60405180910390f35b34801561027a57600080fd5b5061028361072a565b60405161026591906128b9565b34801561029c57600080fd5b506102b06102ab3660046128cc565b6107bc565b6040516001600160a01b039091168152602001610265565b3480156102d457600080fd5b506102e86102e33660046128fc565b610856565b005b3480156102f657600080fd5b506104605b60405161ffff9091168152602001610265565b34801561031a57600080fd5b50610323610988565b604080519384529115156020840152151590820152606001610265565b34801561034c57600080fd5b506102e861035b366004612926565b6109a0565b34801561036c57600080fd5b5061038061037b366004612962565b610a27565b604080516001600160a01b039093168352602083019190915201610265565b3480156103ab57600080fd5b506103bf6103ba3660046128cc565b610a68565b604051908152602001610265565b3480156103d957600080fd5b506103bf610b4e565b3480156103ee57600080fd5b506102e86103fd366004612926565b610b69565b34801561040e57600080fd5b506102fb610b84565b34801561042357600080fd5b506102b06104323660046128cc565b610baa565b6103bf610445366004612984565b610c35565b34801561045657600080fd5b506103bf610465366004612984565b610d0c565b34801561047657600080fd5b506102e8610da6565b34801561048b57600080fd5b50601954604080516001600160a01b0383168152600160a01b90920461ffff16602083015201610265565b3480156104c257600080fd5b506102e8610dfa565b3480156104d757600080fd5b506103bf610f41565b3480156104ec57600080fd5b506104f5610fce565b604051610265919061299f565b34801561050e57600080fd5b506000546001600160a01b03166102b0565b34801561052c57600080fd5b506102836110c2565b34801561054157600080fd5b506103bf6110d1565b34801561055657600080fd5b506102e861111f565b34801561056b57600080fd5b506102e861057a366004612a07565b6113ae565b34801561058b57600080fd5b506103bf6113bd565b3480156105a057600080fd5b506102e86105af366004612a43565b6113c7565b3480156105c057600080fd5b506102e86105cf366004612a8c565b6114af565b3480156105e057600080fd5b506102e86105ef366004612b79565b61153d565b34801561060057600080fd5b506102e861060f366004612bac565b6116ed565b34801561062057600080fd5b5061028361062f3660046128cc565b61186c565b34801561064057600080fd5b50610283611955565b34801561065557600080fd5b50610259610664366004612bc8565b6001600160a01b03918216600090815260066020908152604080832093909416825291909152205460ff1690565b34801561069e57600080fd5b506102e86106ad366004612984565b611975565b3480156106be57600080fd5b506106d26106cd366004612984565b611a45565b6040516102659190612bfb565b60006001600160e01b031982167f2a55205a00000000000000000000000000000000000000000000000000000000141561071b57506001919050565b61072482611b44565b92915050565b60606001805461073990612c3f565b80601f016020809104026020016040519081016040528092919081815260200182805461076590612c3f565b80156107b25780601f10610787576101008083540402835291602001916107b2565b820191906000526020600020905b81548152906001019060200180831161079557829003601f168201915b5050505050905090565b6000818152600360205260408120546001600160a01b031661083a5760405162461bcd60e51b815260206004820152602c60248201527f4552433732313a20617070726f76656420717565727920666f72206e6f6e657860448201526b34b9ba32b73a103a37b5b2b760a11b60648201526084015b60405180910390fd5b506000908152600560205260409020546001600160a01b031690565b600061086182610baa565b9050806001600160a01b0316836001600160a01b031614156108eb5760405162461bcd60e51b815260206004820152602160248201527f4552433732313a20617070726f76616c20746f2063757272656e74206f776e6560448201527f72000000000000000000000000000000000000000000000000000000000000006064820152608401610831565b336001600160a01b038216148061090757506109078133610664565b6109795760405162461bcd60e51b815260206004820152603860248201527f4552433732313a20617070726f76652063616c6c6572206973206e6f74206f7760448201527f6e6572206e6f7220617070726f76656420666f7220616c6c00000000000000006064820152608401610831565b6109838383611bdf565b505050565b6000806000610995611c5a565b925092509250909192565b6109aa3382611ce7565b610a1c5760405162461bcd60e51b815260206004820152603160248201527f4552433732313a207472616e736665722063616c6c6572206973206e6f74206f60448201527f776e6572206e6f7220617070726f7665640000000000000000000000000000006064820152608401610831565b610983838383611dda565b60195460009081906001600160a01b0381169061271090610a5390600160a01b900461ffff1686612c8a565b610a5d9190612cbf565b915091509250929050565b600080546001600160a01b03163314610ab15760405162461bcd60e51b81526020600482018190526024820152600080516020612ebf8339815191526044820152606401610831565b6000546001600160a01b031647831115610b0d5760405162461bcd60e51b815260206004820152601060248201527f42616c616e636520746f6f2068696768000000000000000000000000000000006044820152606401610831565b6040516001600160a01b0382169084156108fc029085906000818181858888f19350505050158015610b43573d6000803e3d6000fd5b50829150505b919050565b6000610b58611fb4565b610b6490610460612cd3565b905090565b610983838383604051806020016040528060008152506114af565b60006004610b9460206040612cea565b610ba090610460612d10565b610b649190612d33565b6000818152600360205260408120546001600160a01b0316806107245760405162461bcd60e51b815260206004820152602960248201527f4552433732313a206f776e657220717565727920666f72206e6f6e657869737460448201527f656e7420746f6b656e00000000000000000000000000000000000000000000006064820152608401610831565b6000806000610c42611c5a565b509150915080610c945760405162461bcd60e51b815260206004820152600f60248201527f44726f70206e6f742061637469766500000000000000000000000000000000006044820152606401610831565b60098260048110610ca757610ca7612d54565b6004020154341015610cfb5760405162461bcd60e51b815260206004820152601660248201527f4f66666572206c6f776572207468616e207072696365000000000000000000006044820152606401610831565b610d0484611fbf565b949350505050565b60006001600160a01b038216610d8a5760405162461bcd60e51b815260206004820152602a60248201527f4552433732313a2062616c616e636520717565727920666f7220746865207a6560448201527f726f2061646472657373000000000000000000000000000000000000000000006064820152608401610831565b506001600160a01b031660009081526004602052604090205490565b6000546001600160a01b03163314610dee5760405162461bcd60e51b81526020600482018190526024820152600080516020612ebf8339815191526044820152606401610831565b610df860006120dd565b565b6000546001600160a01b03163314610e425760405162461bcd60e51b81526020600482018190526024820152600080516020612ebf8339815191526044820152606401610831565b601954600160b01b900460ff1615610e9c5760405162461bcd60e51b815260206004820152601c60248201527f436f6e747261637420616c726561647920696e697469616c697a6564000000006044820152606401610831565b601980547fffffffffffffffffff00ffffffffffffffffffffffffffffffffffffffffffff16600160b01b17905560005b6040811015610efe57600754610eeb906001600160a01b0316611fbf565b5080610ef681612d6a565b915050610ecd565b5060005b6020811015610f3857610f25610f206000546001600160a01b031690565b611fbf565b5080610f3081612d6a565b915050610f02565b50610df861213a565b600080546001600160a01b03163314610f8a5760405162461bcd60e51b81526020600482018190526024820152600080516020612ebf8339815191526044820152606401610831565b600080546040516001600160a01b0390911691479183916108fc841502918491818181858888f19350505050158015610fc7573d6000803e3d6000fd5b5091505090565b60408051600480825260a0820190925260609160009190816020015b6110196040518060800160405280600081526020016000815260200160008152602001600061ffff1681525090565b815260200190600190039081610fea57905050905060005b60048110156110bc576009816004811061104d5761104d612d54565b6040805160808101825260049290920292909201805482526001810154602083015260028101549282019290925260039091015461ffff166060820152825183908390811061109e5761109e612d54565b602002602001018190525080806110b490612d6a565b915050611031565b50919050565b60606002805461073990612c3f565b600080546001600160a01b0316331461111a5760405162461bcd60e51b81526020600482018190526024820152600080516020612ebf8339815191526044820152606401610831565b504790565b6000546001600160a01b031633146111675760405162461bcd60e51b81526020600482018190526024820152600080516020612ebf8339815191526044820152606401610831565b600080611172611c5a565b5091509150806111c45760405162461bcd60e51b815260206004820152600f60248201527f44726f70206e6f742061637469766500000000000000000000000000000000006044820152606401610831565b662386f26fc10000600983600481106111df576111df612d54565b600402015411156112325760405162461bcd60e51b815260206004820152600e60248201527f507269636520746f6f20686967680000000000000000000000000000000000006044820152606401610831565b61123f621a5e0042612cd3565b6009836004811061125257611252612d54565b6004020160010154106112a75760405162461bcd60e51b815260206004820152601b60248201527f44726f70206e6f7420616374697665206c6f6e6720656e6f75676800000000006044820152606401610831565b6112b4620d2f0042612cd3565b600983600481106112c7576112c7612d54565b60040201600201541061131c5760405162461bcd60e51b815260206004820152601c60248201527f5072696365206e6f7420616374697665206c6f6e6720656e6f756768000000006044820152606401610831565b6000611326611fb4565b90505b600461133760206040612cea565b61134390610460612d10565b61134d9190612d33565b6009846004811061136057611360612d54565b6004020160030154611376919061ffff16612cea565b61ffff168110156109835761139b6113966000546001600160a01b031690565b61221d565b50806113a681612d6a565b915050611329565b6113b933838361227e565b5050565b6000610b64611fb4565b8061ffff81166101c2101561141e5760405162461bcd60e51b815260206004820152601660248201527f526f79616c747920626173697320746f6f2068696768000000000000000000006044820152606401610831565b6000546001600160a01b031633146114665760405162461bcd60e51b81526020600482018190526024820152600080516020612ebf8339815191526044820152606401610831565b506019805461ffff909216600160a01b027fffffffffffffffffffff000000000000000000000000000000000000000000009092166001600160a01b0390931692909217179055565b6114b93383611ce7565b61152b5760405162461bcd60e51b815260206004820152603160248201527f4552433732313a207472616e736665722063616c6c6572206973206e6f74206f60448201527f776e6572206e6f7220617070726f7665640000000000000000000000000000006064820152608401610831565b6115378484848461234d565b50505050565b828160098260ff166004811061155557611555612d54565b600402016001015460001480611592575061157242610e10612d85565b60098360ff166004811061158857611588612d54565b6004020160010154115b6115de5760405162461bcd60e51b815260206004820152601660248201527f44726f70207374617274696e6720746f6f20736f6f6e000000000000000000006044820152606401610831565b6115ea42611c20612d85565b81116116385760405162461bcd60e51b815260206004820152601860248201527f4e6577207374617274206461746520746f6f20636c6f736500000000000000006044820152606401610831565b6000546001600160a01b031633146116805760405162461bcd60e51b81526020600482018190526024820152600080516020612ebf8339815191526044820152606401610831565b8360098660ff166004811061169757611697612d54565b60040201600001819055508260098660ff16600481106116b9576116b9612d54565b60040201600101819055508260098660ff16600481106116db576116db612d54565b60040201600201819055505050505050565b81818060098360ff166004811061170657611706612d54565b6004020154116117585760405162461bcd60e51b815260206004820152601560248201527f50726963652063616e6e6f7420696e63726561736500000000000000000000006044820152606401610831565b6117606123d6565b60ff168260ff1610156117b55760405162461bcd60e51b815260206004820152601a60248201527f44726f702068617320616c726561647920636f6d706c657465640000000000006044820152606401610831565b6000546001600160a01b031633146117fd5760405162461bcd60e51b81526020600482018190526024820152600080516020612ebf8339815191526044820152606401610831565b8260098560ff166004811061181457611814612d54565b60040201600001819055504260098560ff166004811061183657611836612d54565b60040201600101541015611537574260098560ff166004811061185b5761185b612d54565b600402016002018190555050505050565b6000818152600360205260409020546060906001600160a01b03166118f95760405162461bcd60e51b815260206004820152602f60248201527f4552433732314d657461646174613a2055524920717565727920666f72206e6f60448201527f6e6578697374656e7420746f6b656e00000000000000000000000000000000006064820152608401610831565b600061190361242b565b90506000815111611923576040518060200160405280600081525061194e565b8061192d8461244b565b60405160200161193e929190612d9d565b6040516020818303038152906040525b9392505050565b6060604051806060016040528060358152602001612e8a60359139905090565b6000546001600160a01b031633146119bd5760405162461bcd60e51b81526020600482018190526024820152600080516020612ebf8339815191526044820152606401610831565b6001600160a01b038116611a395760405162461bcd60e51b815260206004820152602660248201527f4f776e61626c653a206e6577206f776e657220697320746865207a65726f206160448201527f64647265737300000000000000000000000000000000000000000000000000006064820152608401610831565b611a42816120dd565b50565b60606000611a5283610d0c565b67ffffffffffffffff811115611a6a57611a6a612a76565b604051908082528060200260200182016040528015611a93578160200160208202803683370190505b509050600060015b61046061ffff821611611b3b5761ffff81166000908152600360205260409020546001600160a01b031615158015611af05750846001600160a01b0316611ae58261ffff16610baa565b6001600160a01b0316145b15611b29578061ffff16838361ffff1681518110611b1057611b10612d54565b602090810291909101015281611b2581612dc3565b9250505b80611b3381612dc3565b915050611a9b565b50909392505050565b60006001600160e01b031982167f80ac58cd000000000000000000000000000000000000000000000000000000001480611ba757506001600160e01b031982167f5b5e139f00000000000000000000000000000000000000000000000000000000145b8061072457507f01ffc9a7000000000000000000000000000000000000000000000000000000006001600160e01b0319831614610724565b6000818152600560205260409020805473ffffffffffffffffffffffffffffffffffffffff19166001600160a01b0384169081179091558190611c2182610baa565b6001600160a01b03167f8c5be1e5ebec7d5bd14f71427d1e84f3dd0314c0f7b2291e5b200ac8c7c3b92560405160405180910390a45050565b600080600080611c686123d6565b90506000610460611c77611fb4565b10159050600060018214801590611cac575060098360ff1660048110611c9f57611c9f612d54565b6004020160010154600014155b8015611cd557504260098460ff1660048110611cca57611cca612d54565b600402016001015411155b60ff9093169692955090935090915050565b6000818152600360205260408120546001600160a01b0316611d605760405162461bcd60e51b815260206004820152602c60248201527f4552433732313a206f70657261746f7220717565727920666f72206e6f6e657860448201526b34b9ba32b73a103a37b5b2b760a11b6064820152608401610831565b6000611d6b83610baa565b9050806001600160a01b0316846001600160a01b03161480611da65750836001600160a01b0316611d9b846107bc565b6001600160a01b0316145b80610d0457506001600160a01b0380821660009081526006602090815260408083209388168352929052205460ff16610d04565b826001600160a01b0316611ded82610baa565b6001600160a01b031614611e695760405162461bcd60e51b815260206004820152602960248201527f4552433732313a207472616e73666572206f6620746f6b656e2074686174206960448201527f73206e6f74206f776e00000000000000000000000000000000000000000000006064820152608401610831565b6001600160a01b038216611ee45760405162461bcd60e51b8152602060048201526024808201527f4552433732313a207472616e7366657220746f20746865207a65726f2061646460448201527f72657373000000000000000000000000000000000000000000000000000000006064820152608401610831565b611eef600082611bdf565b6001600160a01b0383166000908152600460205260408120805460019290611f18908490612cd3565b90915550506001600160a01b0382166000908152600460205260408120805460019290611f46908490612d85565b9091555050600081815260036020526040808220805473ffffffffffffffffffffffffffffffffffffffff19166001600160a01b0386811691821790925591518493918716917fddf252ad1be2c89b69c2b068fc378daa952ba7f163c4a11628f55a4df523b3ef91a4505050565b6000610b6460085490565b600080611fca611fb4565b611fd5906001612d85565b61ffff8082166000908152601a6020526040812054929350911615612010575061ffff8082166000908152601a6020526040902054166120cb565b600061201a611fb4565b61202690610460612cd3565b60408051426020820152016040516020818303038152906040528051906020012060001c6120549190612de5565b6120629061ffff8516612d85565b61ffff8082166000908152601a60205260409020549192501615801561209057508061ffff168361ffff1614155b156120c15761ffff8181166000818152601a60205260409020805461ffff19169286169290921790915591506120c9565b8261ffff1691505b505b6120d5848261257d565b61194e6126cc565b600080546001600160a01b0383811673ffffffffffffffffffffffffffffffffffffffff19831681178455604051919092169283917f8be0079c531659141344cd1fd0a4f28419497f9722a3daafe3b4186f6b6457e09190a35050565b6000546001600160a01b031633146121825760405162461bcd60e51b81526020600482018190526024820152600080516020612ebf8339815191526044820152606401610831565b600061219060206040612cea565b905060005b60048160ff1610156113b9578160098260ff16600481106121b8576121b8612d54565b6004020160030160006101000a81548161ffff021916908361ffff1602179055506004602060406121e99190612cea565b6121f590610460612d10565b6121ff9190612d33565b6122099083612cea565b91508061221581612df9565b915050612195565b600080612228611fb4565b612233906001612d85565b61ffff8082166000908152601a602052604081205492935091161561226e575061ffff8082166000908152601a6020526040902054166120cb565b5061ffff81166120d5848261257d565b816001600160a01b0316836001600160a01b031614156122e05760405162461bcd60e51b815260206004820152601960248201527f4552433732313a20617070726f766520746f2063616c6c6572000000000000006044820152606401610831565b6001600160a01b03838116600081815260066020908152604080832094871680845294825291829020805460ff191686151590811790915591519182527f17307eab39ab6107e8899845ad3d59bd9653f200f220920489ca2b5937696c31910160405180910390a3505050565b612358848484611dda565b612364848484846126da565b6115375760405162461bcd60e51b815260206004820152603260248201527f4552433732313a207472616e7366657220746f206e6f6e20455243373231526560448201527f63656976657220696d706c656d656e74657200000000000000000000000000006064820152608401610831565b6000806123e560016004612cd3565b90505b600981600481106123fb576123fb612d54565b600402016003015461ffff1661240f611fb4565b1061241957919050565b8061242381612e19565b9150506123e8565b6060604051806060016040528060368152602001612edf60369139905090565b60608161248b57505060408051808201909152600181527f3000000000000000000000000000000000000000000000000000000000000000602082015290565b8160005b81156124b5578061249f81612d6a565b91506124ae9050600a83612cbf565b915061248f565b60008167ffffffffffffffff8111156124d0576124d0612a76565b6040519080825280601f01601f1916602001820160405280156124fa576020820181803683370190505b5090505b8415610d045761250f600183612cd3565b915061251c600a86612de5565b612527906030612d85565b60f81b81838151811061253c5761253c612d54565b60200101907effffffffffffffffffffffffffffffffffffffffffffffffffffffffffffff1916908160001a905350612576600a86612cbf565b94506124fe565b6001600160a01b0382166125d35760405162461bcd60e51b815260206004820181905260248201527f4552433732313a206d696e7420746f20746865207a65726f20616464726573736044820152606401610831565b6000818152600360205260409020546001600160a01b0316156126385760405162461bcd60e51b815260206004820152601c60248201527f4552433732313a20746f6b656e20616c7265616479206d696e746564000000006044820152606401610831565b6001600160a01b0382166000908152600460205260408120805460019290612661908490612d85565b9091555050600081815260036020526040808220805473ffffffffffffffffffffffffffffffffffffffff19166001600160a01b03861690811790915590518392907fddf252ad1be2c89b69c2b068fc378daa952ba7f163c4a11628f55a4df523b3ef908290a45050565b610df8600880546001019055565b60006001600160a01b0384163b1561282357604051630a85bd0160e11b81526001600160a01b0385169063150b7a029061271e903390899088908890600401612e30565b6020604051808303816000875af1925050508015612759575060408051601f3d908101601f1916820190925261275691810190612e6c565b60015b612809573d808015612787576040519150601f19603f3d011682016040523d82523d6000602084013e61278c565b606091505b5080516128015760405162461bcd60e51b815260206004820152603260248201527f4552433732313a207472616e7366657220746f206e6f6e20455243373231526560448201527f63656976657220696d706c656d656e74657200000000000000000000000000006064820152608401610831565b805181602001fd5b6001600160e01b031916630a85bd0160e11b149050610d04565b506001949350505050565b6001600160e01b031981168114611a4257600080fd5b60006020828403121561285657600080fd5b813561194e8161282e565b60005b8381101561287c578181015183820152602001612864565b838111156115375750506000910152565b600081518084526128a5816020860160208601612861565b601f01601f19169290920160200192915050565b60208152600061194e602083018461288d565b6000602082840312156128de57600080fd5b5035919050565b80356001600160a01b0381168114610b4957600080fd5b6000806040838503121561290f57600080fd5b612918836128e5565b946020939093013593505050565b60008060006060848603121561293b57600080fd5b612944846128e5565b9250612952602085016128e5565b9150604084013590509250925092565b6000806040838503121561297557600080fd5b50508035926020909101359150565b60006020828403121561299657600080fd5b61194e826128e5565b602080825282518282018190526000919060409081850190868401855b828110156129fa578151805185528681015187860152858101518686015260609081015161ffff1690850152608090930192908501906001016129bc565b5091979650505050505050565b60008060408385031215612a1a57600080fd5b612a23836128e5565b915060208301358015158114612a3857600080fd5b809150509250929050565b60008060408385031215612a5657600080fd5b612a5f836128e5565b9150602083013561ffff81168114612a3857600080fd5b634e487b7160e01b600052604160045260246000fd5b60008060008060808587031215612aa257600080fd5b612aab856128e5565b9350612ab9602086016128e5565b925060408501359150606085013567ffffffffffffffff80821115612add57600080fd5b818701915087601f830112612af157600080fd5b813581811115612b0357612b03612a76565b604051601f8201601f19908116603f01168101908382118183101715612b2b57612b2b612a76565b816040528281528a6020848701011115612b4457600080fd5b82602086016020830137600060208483010152809550505050505092959194509250565b803560ff81168114610b4957600080fd5b600080600060608486031215612b8e57600080fd5b612b9784612b68565b95602085013595506040909401359392505050565b60008060408385031215612bbf57600080fd5b61291883612b68565b60008060408385031215612bdb57600080fd5b612be4836128e5565b9150612bf2602084016128e5565b90509250929050565b6020808252825182820181905260009190848201906040850190845b81811015612c3357835183529284019291840191600101612c17565b50909695505050505050565b600181811c90821680612c5357607f821691505b602082108114156110bc57634e487b7160e01b600052602260045260246000fd5b634e487b7160e01b600052601160045260246000fd5b6000816000190483118215151615612ca457612ca4612c74565b500290565b634e487b7160e01b600052601260045260246000fd5b600082612cce57612cce612ca9565b500490565b600082821015612ce557612ce5612c74565b500390565b600061ffff808316818516808303821115612d0757612d07612c74565b01949350505050565b600061ffff83811690831681811015612d2b57612d2b612c74565b039392505050565b600061ffff80841680612d4857612d48612ca9565b92169190910492915050565b634e487b7160e01b600052603260045260246000fd5b6000600019821415612d7e57612d7e612c74565b5060010190565b60008219821115612d9857612d98612c74565b500190565b60008351612daf818460208801612861565b835190830190612d07818360208801612861565b600061ffff80831681811415612ddb57612ddb612c74565b6001019392505050565b600082612df457612df4612ca9565b500690565b600060ff821660ff811415612e1057612e10612c74565b60010192915050565b600081612e2857612e28612c74565b506000190190565b60006001600160a01b03808716835280861660208401525083604083015260806060830152612e62608083018461288d565b9695505050505050565b600060208284031215612e7e57600080fd5b815161194e8161282e56fe697066733a2f2f516d5036776e4d5359777a4551485767425a6f624b46326472457234477045363677396a4e3170334844776855654f776e61626c653a2063616c6c6572206973206e6f7420746865206f776e6572697066733a2f2f516d5036776e4d5359777a4551485767425a6f624b46326472457234477045363677396a4e3170334844776855652fa26469706673582212203dcae5f691f7426c7314198ae0fb97b5fa52e5420351b45dfd3a707b2e1072db64736f6c634300080a0033",
  "immutableReferences": {},
  "source": "// The tokens of this contract are licensed under a Creative Commons Attribution-NonCommercial-ShareAlike 4.0 International License (https://creativecommons.org/licenses/by-nc-sa/4.0/)\n// SPDX-License-Identifier:  CC-BY-NC-SA-4.0\npragma solidity ^0.8.0;\n\nimport \"./LadybugFinances.sol\";\n\n\n/**\n * @author WrightCode\n * @title Ladybug Minter\n * @dev Controls the information around minting and mint-related data\n */\ncontract LadybugMinter is LadybugFinances {\n\n    uint private constant DROP_TIME_TOLERANCE = 1728000; // (60*60*24)*20 = 20 days\n    uint private constant PRICE_TIME_TOLERANCE = 864000; // (60*60*24)*10 = 10 days\n\n    bool private initialized;\n\n    mapping(uint16 => uint16) private _randomized;\n\n    /**\n     * @dev Shuffle the deck, then premint to dev and owner accounts.\n     */\n    function initialize() external onlyOwner {\n        require(!initialized, \"Contract already initialized\");\n        initialized = true;\n\n        // the development team will get a handful of preminted (but random, shuffled) nfts...\n        for (uint i = 0; i < _RESERVED_LADYBUGS_DEVELOPMENT; i++) {\n            _mintInternal(_developmentTeamAddress);\n        }\n        // ...as will the owner of the contract\n        for (uint i = 0; i < _RESERVED_LADYBUGS_OWNER; i++) {\n            _mintInternal(owner());\n        }\n\n        // prepare the drops\n        _initializeDrops();\n    }\n\n    /**\n     * @dev Mint the remaining bugs in drop to owner if \"stalled out\".\n     *\n     * The drop is considered stalled if the drop began more than DROP_TIME_TOLERANCE days ago,\n     * the price is less than 0.01 ETH and has been at that price for more than PRICE_TIME_TOLERANCE days.\n     *\n     * The idea being that if no one is minting the ladybugs after the price has been lowered,\n     * then the owner may mint them.\n     *\n     * Please do not let them stall out, these ladybugs need new greener gardens.\n     *\n     * In other words, I will not abandon my ladybugs.\n     */\n    function mintStalledDropToOwner() external onlyOwner {\n        (uint _index, bool _active, ) = _status();\n        require (_active, \"Drop not active\");\n        require (drops[_index].price <= 0.01 ether, \"Price too high\");\n        require (drops[_index].date < block.timestamp - DROP_TIME_TOLERANCE, \"Drop not active long enough\");\n        require (drops[_index].priceDate < block.timestamp - PRICE_TIME_TOLERANCE, \"Price not active long enough\");\n        for (uint i = _currentSupplyIndex(); i < drops[_index].startAtIndex + _TOKENS_PER_DROP; i++) {\n            _mintStalled(owner());\n        }\n    }\n\n    /**\n     * @dev Count the current number of ladybugs minted.\n     */\n    function totalMinted() external view returns (uint) {\n        return _currentSupplyIndex();\n    }\n\n    /**\n     * @dev Count the remaning, unminted ladybugs.\n     */\n    function unminted() external view returns (uint) {\n        return uint(_MAX_LADYBUGS) - _currentSupplyIndex();\n    }\n\n    /**\n     * @dev Mint the ERC 721 ladybug token, transfer it to the recipient.\n     * The drop must be active and the payment must be above the specified drop price.\n     */\n    function mint(address recipient) external payable returns (uint) {\n        // if there's no active drop, error is thrown\n        (uint _index, bool _active, ) = _status();\n        require (_active, \"Drop not active\");\n        require (msg.value >= drops[_index].price, \"Offer lower than price\");\n        return _mintInternal(recipient);\n    }\n\n    /**\n     * @dev I believe this is necessary for OpenSea, there's no trailing slash.\n     * The CID is the directory containing the nft metadata.\n     */\n    function contractURI() public pure returns (string memory) {\n        // todo https://docs.opensea.io/docs/contract-level-metadata\n        // this is the pinata directory of the numbers metadata\n        return \"ipfs://QmP6wnMSYwzEQHWgBZobKF2drEr4GpE66w9jN1p3HDwhUe\";\n    }\n\n    /**\n     * @dev Method used internally to construct the path to the token's metadata (json).\n     * This is an ipfs uri with a trailing slash.\n     */\n    function _baseURI() internal virtual override pure returns (string memory) {\n        return \"ipfs://QmP6wnMSYwzEQHWgBZobKF2drEr4GpE66w9jN1p3HDwhUe/\";\n    }\n\n    /**\n     * @dev Mint the ERC 721 ladybug token, transfer it to the recipient.\n     *\n     * This is a very simple distribution of the bugs, they're not part of a great reveal,\n     * we're not looking to game anyone, they simply want a good home with someone that'll\n     * appreciate them.\n     *\n     * The goal is to mint the ladybugs in a non-sequential order.  To do so, I'm adding a\n     * little \"randomness\" on each mint.  It's by no means perfect or unpredicatable, but\n     * that's the scope of this project.\n     *\n     * Perhaps my next project, with a larger budget, will merit a more challenging and\n     * sophisticted mint.  That would be a lot of fun to work on.\n     *\n     * Until then, enjoy the bugs as they are, they're ready to fly.\n     */\n    function _mintInternal(address recipient) internal returns (uint) {\n        // the tokens are 1.._MAX_LADYBUGS (i.e. not zero-based)\n        uint16 _index = uint16(_currentSupplyIndex() + 1);\n        uint newItemId;\n\n        // check if this index is part of the mapping\n        if (_randomized[_index] != 0) {\n            newItemId = _randomized[_index];\n            // it would be nice to remove the entry from _randomized after retrieving the value, \n            // but the gas was too expensive and so i chose not not, on behalf of the minter\n        } else {\n            uint16 n = uint16(_index + uint256(keccak256(abi.encodePacked(block.timestamp))) % (_MAX_LADYBUGS - _currentSupplyIndex()));\n            // if the random number is not already holding a swap, use it ...\n            if (_randomized[n] == 0 && _index != n) {\n                _randomized[n] = _index;\n                newItemId = n;\n            } else {\n                // ... else just use the index, the random swap (n) already has a value\n                newItemId = _index;\n            }\n        }\n\n        _mint(recipient, newItemId);\n        // increment the supply counter\n        _incrementCurrentSupplyIndex();\n        return newItemId;\n    }\n\n    /**\n     * @dev Mint the stalled-out ERC 721 ladybug tokens, transfer it to the recipient.\n     * Gas is expensive in this process, so we'll look at any previously \"randomized\"\n     * elements and use them, otherwise, we'll just go in order to reduce gas prices.\n     */\n    function _mintStalled(address recipient) internal returns (uint) {\n        // get the mint id from the shuffled array (it's zero based)\n        uint16 _index = uint16(_currentSupplyIndex() + 1);\n        uint newItemId;\n\n        // check if this index is part of the mapping\n        if (_randomized[_index] != 0) {\n            newItemId = _randomized[_index];\n            // it would be nice to remove the entry from _randomized after retrieving the value, \n            // but the gas was too expensive and so i chose not not, on behalf of the minter\n        } else {\n            // ... else just use the index, it's too expensive in gas, to randomize here\n            newItemId = _index;\n        }\n\n        _mint(recipient, newItemId);\n        // increment the supply counter\n        _incrementCurrentSupplyIndex();\n        return newItemId;\n    }\n\n}\n",
  "sourcePath": "/Users/jwright/Development/ladybugs/contracts/LadybugMinter.sol",
  "compiler": {
    "name": "solc",
    "version": "0.8.10+commit.fc410830.Emscripten.clang"
  },
  "schemaVersion": "3.4.4",
  "updatedAt": "2022-03-05T14:58:07.074Z",
  "networkType": "ethereum",
  "devdoc": {
    "author": "WrightCode",
    "details": "Controls the information around minting and mint-related data",
    "kind": "dev",
    "methods": {
      "approve(address,uint256)": {
        "details": "See {IERC721-approve}."
      },
      "balanceInContract()": {
        "details": "Display the balance of funds in the contract, onlyOwner."
      },
      "balanceOf(address)": {
        "details": "See {IERC721-balanceOf}."
      },
      "contractURI()": {
        "details": "I believe this is necessary for OpenSea, there's no trailing slash. The CID is the directory containing the nft metadata."
      },
      "dropPrice(uint8,uint256)": {
        "details": "Decrease the price of an active drop.  Useful if drops \"stall out\". Why would I do this?  Well, I am not convinced the world will love my ladybugs as much as I love my ladybugs, and I am okay with this.  Art is subjective. So if this proves true, then I want the ability to end the mint, and re-evaluate my distribution plan.  I will not abandon my ladybugs."
      },
      "getApproved(uint256)": {
        "details": "See {IERC721-getApproved}."
      },
      "getDrops()": {
        "details": "Return an array of all the drops."
      },
      "getLadybugIdsByOwner(address)": {
        "details": "Return array of ladybug token Ids owned by the address."
      },
      "getLadybugRoyaltyInfo()": {
        "details": "View the royalty recipient and basis values."
      },
      "initialize()": {
        "details": "Shuffle the deck, then premint to dev and owner accounts."
      },
      "isApprovedForAll(address,address)": {
        "details": "See {IERC721-isApprovedForAll}."
      },
      "mint(address)": {
        "details": "Mint the ERC 721 ladybug token, transfer it to the recipient. The drop must be active and the payment must be above the specified drop price."
      },
      "mintStalledDropToOwner()": {
        "details": "Mint the remaining bugs in drop to owner if \"stalled out\". The drop is considered stalled if the drop began more than DROP_TIME_TOLERANCE days ago, the price is less than 0.01 ETH and has been at that price for more than PRICE_TIME_TOLERANCE days. The idea being that if no one is minting the ladybugs after the price has been lowered, then the owner may mint them. Please do not let them stall out, these ladybugs need new greener gardens. In other words, I will not abandon my ladybugs."
      },
      "name()": {
        "details": "See {IERC721Metadata-name}."
      },
      "owner()": {
        "details": "Returns the address of the current owner."
      },
      "ownerOf(uint256)": {
        "details": "See {IERC721-ownerOf}."
      },
      "renounceOwnership()": {
        "details": "Leaves the contract without owner. It will not be possible to call `onlyOwner` functions anymore. Can only be called by the current owner. NOTE: Renouncing ownership will leave the contract without an owner, thereby removing any functionality that is only available to the owner."
      },
      "royaltyInfo(uint256,uint256)": {
        "details": "ERC-2981 interface to retriee royalty information by any service that adheres to the standard and pays royalties. Some implementations use per-tokenId configurations, but this implementation uses the same recipient and royalty basis for all tokens."
      },
      "safeTransferFrom(address,address,uint256)": {
        "details": "See {IERC721-safeTransferFrom}."
      },
      "safeTransferFrom(address,address,uint256,bytes)": {
        "details": "See {IERC721-safeTransferFrom}."
      },
      "setApprovalForAll(address,bool)": {
        "details": "See {IERC721-setApprovalForAll}."
      },
      "setLadybugRoyaltyInfo(address,uint16)": {
        "details": "Allows owner to change the royalties and recipient of royalties."
      },
      "status()": {
        "details": "Return the current drop index and whether it's active or not."
      },
      "supportsInterface(bytes4)": {
        "details": "Supports Interface for ERC-2981"
      },
      "symbol()": {
        "details": "See {IERC721Metadata-symbol}."
      },
      "tokenURI(uint256)": {
        "details": "See {IERC721Metadata-tokenURI}."
      },
      "tokensPerDrop()": {
        "details": "Constant, number of tokens per drop."
      },
      "totalMinted()": {
        "details": "Count the current number of ladybugs minted."
      },
      "totalSupply()": {
        "details": "The total supply of all ladybug tokens."
      },
      "transferFrom(address,address,uint256)": {
        "details": "See {IERC721-transferFrom}."
      },
      "transferOwnership(address)": {
        "details": "Transfers ownership of the contract to a new account (`newOwner`). Can only be called by the current owner."
      },
      "unminted()": {
        "details": "Count the remaning, unminted ladybugs."
      },
      "updateDrop(uint8,uint256,uint256)": {
        "details": "Update the price and date of non-active drops only."
      },
      "withdraw(uint256)": {
        "details": "Allows owner to transfer some of the funds from contract, effectively paying oneself."
      },
      "withdrawAll()": {
        "details": "Allows owner to transfer all funds from contract, effectively paying oneself."
      }
    },
    "title": "Ladybug Minter",
    "version": 1
  },
  "userdoc": {
    "kind": "user",
    "methods": {},
    "version": 1
  }
}