{
  "contractName": "LadybugFinances",
  "abi": [
    {
      "inputs": [],
      "stateMutability": "nonpayable",
      "type": "constructor"
    },
    {
      "anonymous": false,
      "inputs": [
        {
          "indexed": true,
          "internalType": "address",
          "name": "owner",
          "type": "address"
        },
        {
          "indexed": true,
          "internalType": "address",
          "name": "approved",
          "type": "address"
        },
        {
          "indexed": true,
          "internalType": "uint256",
          "name": "tokenId",
          "type": "uint256"
        }
      ],
      "name": "Approval",
      "type": "event"
    },
    {
      "anonymous": false,
      "inputs": [
        {
          "indexed": true,
          "internalType": "address",
          "name": "owner",
          "type": "address"
        },
        {
          "indexed": true,
          "internalType": "address",
          "name": "operator",
          "type": "address"
        },
        {
          "indexed": false,
          "internalType": "bool",
          "name": "approved",
          "type": "bool"
        }
      ],
      "name": "ApprovalForAll",
      "type": "event"
    },
    {
      "anonymous": false,
      "inputs": [
        {
          "indexed": true,
          "internalType": "address",
          "name": "previousOwner",
          "type": "address"
        },
        {
          "indexed": true,
          "internalType": "address",
          "name": "newOwner",
          "type": "address"
        }
      ],
      "name": "OwnershipTransferred",
      "type": "event"
    },
    {
      "anonymous": false,
      "inputs": [
        {
          "indexed": true,
          "internalType": "address",
          "name": "from",
          "type": "address"
        },
        {
          "indexed": true,
          "internalType": "address",
          "name": "to",
          "type": "address"
        },
        {
          "indexed": true,
          "internalType": "uint256",
          "name": "tokenId",
          "type": "uint256"
        }
      ],
      "name": "Transfer",
      "type": "event"
    },
    {
      "inputs": [
        {
          "internalType": "address",
          "name": "to",
          "type": "address"
        },
        {
          "internalType": "uint256",
          "name": "tokenId",
          "type": "uint256"
        }
      ],
      "name": "approve",
      "outputs": [],
      "stateMutability": "nonpayable",
      "type": "function"
    },
    {
      "inputs": [
        {
          "internalType": "address",
          "name": "owner",
          "type": "address"
        }
      ],
      "name": "balanceOf",
      "outputs": [
        {
          "internalType": "uint256",
          "name": "",
          "type": "uint256"
        }
      ],
      "stateMutability": "view",
      "type": "function"
    },
    {
      "inputs": [
        {
          "internalType": "uint8",
          "name": "index",
          "type": "uint8"
        },
        {
          "internalType": "uint256",
          "name": "price",
          "type": "uint256"
        }
      ],
      "name": "dropPrice",
      "outputs": [],
      "stateMutability": "nonpayable",
      "type": "function"
    },
    {
      "inputs": [
        {
          "internalType": "uint256",
          "name": "tokenId",
          "type": "uint256"
        }
      ],
      "name": "getApproved",
      "outputs": [
        {
          "internalType": "address",
          "name": "",
          "type": "address"
        }
      ],
      "stateMutability": "view",
      "type": "function"
    },
    {
      "inputs": [],
      "name": "getDrops",
      "outputs": [
        {
          "components": [
            {
              "internalType": "uint256",
              "name": "price",
              "type": "uint256"
            },
            {
              "internalType": "uint256",
              "name": "date",
              "type": "uint256"
            },
            {
              "internalType": "uint256",
              "name": "priceDate",
              "type": "uint256"
            },
            {
              "internalType": "uint16",
              "name": "startAtIndex",
              "type": "uint16"
            }
          ],
          "internalType": "struct LadybugFactory.Drop[]",
          "name": "",
          "type": "tuple[]"
        }
      ],
      "stateMutability": "view",
      "type": "function"
    },
    {
      "inputs": [
        {
          "internalType": "address",
          "name": "bugOwner",
          "type": "address"
        }
      ],
      "name": "getLadybugIdsByOwner",
      "outputs": [
        {
          "internalType": "uint256[]",
          "name": "",
          "type": "uint256[]"
        }
      ],
      "stateMutability": "view",
      "type": "function"
    },
    {
      "inputs": [
        {
          "internalType": "address",
          "name": "owner",
          "type": "address"
        },
        {
          "internalType": "address",
          "name": "operator",
          "type": "address"
        }
      ],
      "name": "isApprovedForAll",
      "outputs": [
        {
          "internalType": "bool",
          "name": "",
          "type": "bool"
        }
      ],
      "stateMutability": "view",
      "type": "function"
    },
    {
      "inputs": [],
      "name": "name",
      "outputs": [
        {
          "internalType": "string",
          "name": "",
          "type": "string"
        }
      ],
      "stateMutability": "view",
      "type": "function"
    },
    {
      "inputs": [],
      "name": "owner",
      "outputs": [
        {
          "internalType": "address",
          "name": "",
          "type": "address"
        }
      ],
      "stateMutability": "view",
      "type": "function"
    },
    {
      "inputs": [
        {
          "internalType": "uint256",
          "name": "tokenId",
          "type": "uint256"
        }
      ],
      "name": "ownerOf",
      "outputs": [
        {
          "internalType": "address",
          "name": "",
          "type": "address"
        }
      ],
      "stateMutability": "view",
      "type": "function"
    },
    {
      "inputs": [],
      "name": "renounceOwnership",
      "outputs": [],
      "stateMutability": "nonpayable",
      "type": "function"
    },
    {
      "inputs": [
        {
          "internalType": "address",
          "name": "from",
          "type": "address"
        },
        {
          "internalType": "address",
          "name": "to",
          "type": "address"
        },
        {
          "internalType": "uint256",
          "name": "tokenId",
          "type": "uint256"
        }
      ],
      "name": "safeTransferFrom",
      "outputs": [],
      "stateMutability": "nonpayable",
      "type": "function"
    },
    {
      "inputs": [
        {
          "internalType": "address",
          "name": "from",
          "type": "address"
        },
        {
          "internalType": "address",
          "name": "to",
          "type": "address"
        },
        {
          "internalType": "uint256",
          "name": "tokenId",
          "type": "uint256"
        },
        {
          "internalType": "bytes",
          "name": "_data",
          "type": "bytes"
        }
      ],
      "name": "safeTransferFrom",
      "outputs": [],
      "stateMutability": "nonpayable",
      "type": "function"
    },
    {
      "inputs": [
        {
          "internalType": "address",
          "name": "operator",
          "type": "address"
        },
        {
          "internalType": "bool",
          "name": "approved",
          "type": "bool"
        }
      ],
      "name": "setApprovalForAll",
      "outputs": [],
      "stateMutability": "nonpayable",
      "type": "function"
    },
    {
      "inputs": [],
      "name": "status",
      "outputs": [
        {
          "internalType": "uint256",
          "name": "index",
          "type": "uint256"
        },
        {
          "internalType": "bool",
          "name": "active",
          "type": "bool"
        },
        {
          "internalType": "bool",
          "name": "complete",
          "type": "bool"
        }
      ],
      "stateMutability": "view",
      "type": "function"
    },
    {
      "inputs": [],
      "name": "symbol",
      "outputs": [
        {
          "internalType": "string",
          "name": "",
          "type": "string"
        }
      ],
      "stateMutability": "view",
      "type": "function"
    },
    {
      "inputs": [
        {
          "internalType": "uint256",
          "name": "tokenId",
          "type": "uint256"
        }
      ],
      "name": "tokenURI",
      "outputs": [
        {
          "internalType": "string",
          "name": "",
          "type": "string"
        }
      ],
      "stateMutability": "view",
      "type": "function"
    },
    {
      "inputs": [],
      "name": "tokensPerDrop",
      "outputs": [
        {
          "internalType": "uint16",
          "name": "",
          "type": "uint16"
        }
      ],
      "stateMutability": "pure",
      "type": "function"
    },
    {
      "inputs": [],
      "name": "totalSupply",
      "outputs": [
        {
          "internalType": "uint16",
          "name": "",
          "type": "uint16"
        }
      ],
      "stateMutability": "pure",
      "type": "function"
    },
    {
      "inputs": [
        {
          "internalType": "address",
          "name": "from",
          "type": "address"
        },
        {
          "internalType": "address",
          "name": "to",
          "type": "address"
        },
        {
          "internalType": "uint256",
          "name": "tokenId",
          "type": "uint256"
        }
      ],
      "name": "transferFrom",
      "outputs": [],
      "stateMutability": "nonpayable",
      "type": "function"
    },
    {
      "inputs": [
        {
          "internalType": "address",
          "name": "newOwner",
          "type": "address"
        }
      ],
      "name": "transferOwnership",
      "outputs": [],
      "stateMutability": "nonpayable",
      "type": "function"
    },
    {
      "inputs": [
        {
          "internalType": "uint8",
          "name": "index",
          "type": "uint8"
        },
        {
          "internalType": "uint256",
          "name": "price",
          "type": "uint256"
        },
        {
          "internalType": "uint256",
          "name": "date",
          "type": "uint256"
        }
      ],
      "name": "updateDrop",
      "outputs": [],
      "stateMutability": "nonpayable",
      "type": "function"
    },
    {
      "inputs": [
        {
          "internalType": "uint256",
          "name": "_tokenId",
          "type": "uint256"
        },
        {
          "internalType": "uint256",
          "name": "_salePrice",
          "type": "uint256"
        }
      ],
      "name": "royaltyInfo",
      "outputs": [
        {
          "internalType": "address",
          "name": "receiver",
          "type": "address"
        },
        {
          "internalType": "uint256",
          "name": "royaltyAmount",
          "type": "uint256"
        }
      ],
      "stateMutability": "view",
      "type": "function"
    },
    {
      "inputs": [],
      "name": "getLadybugRoyaltyInfo",
      "outputs": [
        {
          "internalType": "address",
          "name": "receiver",
          "type": "address"
        },
        {
          "internalType": "uint16",
          "name": "basis",
          "type": "uint16"
        }
      ],
      "stateMutability": "view",
      "type": "function"
    },
    {
      "inputs": [
        {
          "internalType": "address",
          "name": "_recipient",
          "type": "address"
        },
        {
          "internalType": "uint16",
          "name": "_basis",
          "type": "uint16"
        }
      ],
      "name": "setLadybugRoyaltyInfo",
      "outputs": [],
      "stateMutability": "nonpayable",
      "type": "function"
    },
    {
      "inputs": [],
      "name": "balanceInContract",
      "outputs": [
        {
          "internalType": "uint256",
          "name": "",
          "type": "uint256"
        }
      ],
      "stateMutability": "view",
      "type": "function"
    },
    {
      "inputs": [],
      "name": "withdrawAll",
      "outputs": [
        {
          "internalType": "uint256",
          "name": "",
          "type": "uint256"
        }
      ],
      "stateMutability": "nonpayable",
      "type": "function"
    },
    {
      "inputs": [
        {
          "internalType": "uint256",
          "name": "balance",
          "type": "uint256"
        }
      ],
      "name": "withdraw",
      "outputs": [
        {
          "internalType": "uint256",
          "name": "",
          "type": "uint256"
        }
      ],
      "stateMutability": "nonpayable",
      "type": "function"
    },
    {
      "inputs": [
        {
          "internalType": "bytes4",
          "name": "interfaceId",
          "type": "bytes4"
        }
      ],
      "name": "supportsInterface",
      "outputs": [
        {
          "internalType": "bool",
          "name": "",
          "type": "bool"
        }
      ],
      "stateMutability": "view",
      "type": "function"
    }
  ],
  "bytecode": "0x6080604052600780546001600160a01b031916733254c065f85167003f165e134a391a6ec2c2627917905560198054607d60a11b61ffff60a01b199091161790553480156200004d57600080fd5b506040518060400160405280600d81526020016c2630b23cb13ab3902837bbb2b960991b815250604051806040016040528060078152602001664c41445942554760c81b815250620000ae620000a86200010460201b60201c565b62000108565b8151620000c390600190602085019062000158565b508051620000d990600290602084019062000158565b5050600054601980546001600160a01b0319166001600160a01b03909216919091179055506200023b565b3390565b600080546001600160a01b038381166001600160a01b0319831681178455604051919092169283917f8be0079c531659141344cd1fd0a4f28419497f9722a3daafe3b4186f6b6457e09190a35050565b8280546200016690620001fe565b90600052602060002090601f0160209004810192826200018a5760008555620001d5565b82601f10620001a557805160ff1916838001178555620001d5565b82800160010185558215620001d5579182015b82811115620001d5578251825591602001919060010190620001b8565b50620001e3929150620001e7565b5090565b5b80821115620001e35760008155600101620001e8565b600181811c908216806200021357607f821691505b602082108114156200023557634e487b7160e01b600052602260045260246000fd5b50919050565b61241a806200024b6000396000f3fe608060405234801561001057600080fd5b50600436106101cf5760003560e01c80637719195211610104578063b548ff8d116100a2578063c87b56dd11610071578063c87b56dd14610403578063e985e9c514610416578063f2fde38b14610452578063f925fa871461046557600080fd5b8063b548ff8d146103b7578063b88d4fde146103ca578063bcbc9cfd146103dd578063c829bb05146103f057600080fd5b80638da5cb5b116100de5780638da5cb5b1461038357806395d89b411461039457806399f4a5ab1461039c578063a22cb465146103a457600080fd5b8063771919521461033c578063853828b6146103665780638691afb51461036e57600080fd5b80632a55205a11610171578063508fb73b1161014b578063508fb73b146103065780636352211e1461030e57806370a0823114610321578063715018a61461033457600080fd5b80632a55205a146102a05780632e1a7d4d146102d257806342842e0e146102f357600080fd5b8063095ea7b3116101ad578063095ea7b31461023c57806318160ddd14610251578063200d2ed21461026857806323b872dd1461028d57600080fd5b806301ffc9a7146101d457806306fdde03146101fc578063081812fc14610211575b600080fd5b6101e76101e2366004611dbf565b610485565b60405190151581526020015b60405180910390f35b6102046104d0565b6040516101f39190611e34565b61022461021f366004611e47565b610562565b6040516001600160a01b0390911681526020016101f3565b61024f61024a366004611e77565b6105fc565b005b6104605b60405161ffff90911681526020016101f3565b61027061072e565b6040805193845291151560208401521515908201526060016101f3565b61024f61029b366004611ea1565b610746565b6102b36102ae366004611edd565b6107cd565b604080516001600160a01b0390931683526020830191909152016101f3565b6102e56102e0366004611e47565b61080e565b6040519081526020016101f3565b61024f610301366004611ea1565b610906565b610255610921565b61022461031c366004611e47565b61094c565b6102e561032f366004611eff565b6109d7565b61024f610a71565b601954604080516001600160a01b0383168152600160a01b90920461ffff166020830152016101f3565b6102e5610ad7565b610376610b76565b6040516101f39190611f1a565b6000546001600160a01b0316610224565b610204610c6a565b6102e5610c79565b61024f6103b2366004611f82565b610cd9565b61024f6103c5366004611fbe565b610ce8565b61024f6103d8366004612007565b610de2565b61024f6103eb3660046120f4565b610e70565b61024f6103fe366004612127565b611032565b610204610411366004611e47565b6111c3565b6101e7610424366004612143565b6001600160a01b03918216600090815260066020908152604080832093909416825291909152205460ff1690565b61024f610460366004611eff565b6112b9565b610478610473366004611eff565b61139b565b6040516101f39190612176565b60006001600160e01b031982167f2a55205a0000000000000000000000000000000000000000000000000000000014156104c157506001919050565b6104ca8261149a565b92915050565b6060600180546104df906121ba565b80601f016020809104026020016040519081016040528092919081815260200182805461050b906121ba565b80156105585780601f1061052d57610100808354040283529160200191610558565b820191906000526020600020905b81548152906001019060200180831161053b57829003601f168201915b5050505050905090565b6000818152600360205260408120546001600160a01b03166105e05760405162461bcd60e51b815260206004820152602c60248201527f4552433732313a20617070726f76656420717565727920666f72206e6f6e657860448201526b34b9ba32b73a103a37b5b2b760a11b60648201526084015b60405180910390fd5b506000908152600560205260409020546001600160a01b031690565b60006106078261094c565b9050806001600160a01b0316836001600160a01b031614156106915760405162461bcd60e51b815260206004820152602160248201527f4552433732313a20617070726f76616c20746f2063757272656e74206f776e6560448201527f720000000000000000000000000000000000000000000000000000000000000060648201526084016105d7565b336001600160a01b03821614806106ad57506106ad8133610424565b61071f5760405162461bcd60e51b815260206004820152603860248201527f4552433732313a20617070726f76652063616c6c6572206973206e6f74206f7760448201527f6e6572206e6f7220617070726f76656420666f7220616c6c000000000000000060648201526084016105d7565b6107298383611535565b505050565b600080600061073b6115b0565b925092509250909192565b610750338261163d565b6107c25760405162461bcd60e51b815260206004820152603160248201527f4552433732313a207472616e736665722063616c6c6572206973206e6f74206f60448201527f776e6572206e6f7220617070726f76656400000000000000000000000000000060648201526084016105d7565b610729838383611734565b60195460009081906001600160a01b03811690612710906107f990600160a01b900461ffff1686612205565b610803919061223a565b915091509250929050565b600080546001600160a01b031633146108695760405162461bcd60e51b815260206004820181905260248201527f4f776e61626c653a2063616c6c6572206973206e6f7420746865206f776e657260448201526064016105d7565b6000546001600160a01b0316478311156108c55760405162461bcd60e51b815260206004820152601060248201527f42616c616e636520746f6f20686967680000000000000000000000000000000060448201526064016105d7565b6040516001600160a01b0382169084156108fc029085906000818181858888f193505050501580156108fb573d6000803e3d6000fd5b50829150505b919050565b61072983838360405180602001604052806000815250610de2565b600060046109316020604061224e565b61093d90610460612274565b6109479190612297565b905090565b6000818152600360205260408120546001600160a01b0316806104ca5760405162461bcd60e51b815260206004820152602960248201527f4552433732313a206f776e657220717565727920666f72206e6f6e657869737460448201527f656e7420746f6b656e000000000000000000000000000000000000000000000060648201526084016105d7565b60006001600160a01b038216610a555760405162461bcd60e51b815260206004820152602a60248201527f4552433732313a2062616c616e636520717565727920666f7220746865207a6560448201527f726f20616464726573730000000000000000000000000000000000000000000060648201526084016105d7565b506001600160a01b031660009081526004602052604090205490565b6000546001600160a01b03163314610acb5760405162461bcd60e51b815260206004820181905260248201527f4f776e61626c653a2063616c6c6572206973206e6f7420746865206f776e657260448201526064016105d7565b610ad5600061190e565b565b600080546001600160a01b03163314610b325760405162461bcd60e51b815260206004820181905260248201527f4f776e61626c653a2063616c6c6572206973206e6f7420746865206f776e657260448201526064016105d7565b600080546040516001600160a01b0390911691479183916108fc841502918491818181858888f19350505050158015610b6f573d6000803e3d6000fd5b5091505090565b60408051600480825260a0820190925260609160009190816020015b610bc16040518060800160405280600081526020016000815260200160008152602001600061ffff1681525090565b815260200190600190039081610b9257905050905060005b6004811015610c645760098160048110610bf557610bf56122b8565b6040805160808101825260049290920292909201805482526001810154602083015260028101549282019290925260039091015461ffff1660608201528251839083908110610c4657610c466122b8565b60200260200101819052508080610c5c906122ce565b915050610bd9565b50919050565b6060600280546104df906121ba565b600080546001600160a01b03163314610cd45760405162461bcd60e51b815260206004820181905260248201527f4f776e61626c653a2063616c6c6572206973206e6f7420746865206f776e657260448201526064016105d7565b504790565b610ce433838361196b565b5050565b8061ffff81166101c21015610d3f5760405162461bcd60e51b815260206004820152601660248201527f526f79616c747920626173697320746f6f20686967680000000000000000000060448201526064016105d7565b6000546001600160a01b03163314610d995760405162461bcd60e51b815260206004820181905260248201527f4f776e61626c653a2063616c6c6572206973206e6f7420746865206f776e657260448201526064016105d7565b506019805461ffff909216600160a01b027fffffffffffffffffffff000000000000000000000000000000000000000000009092166001600160a01b0390931692909217179055565b610dec338361163d565b610e5e5760405162461bcd60e51b815260206004820152603160248201527f4552433732313a207472616e736665722063616c6c6572206973206e6f74206f60448201527f776e6572206e6f7220617070726f76656400000000000000000000000000000060648201526084016105d7565b610e6a84848484611a3a565b50505050565b828160098260ff1660048110610e8857610e886122b8565b600402016001015460001480610ec55750610ea542610e106122e9565b60098360ff1660048110610ebb57610ebb6122b8565b6004020160010154115b610f115760405162461bcd60e51b815260206004820152601660248201527f44726f70207374617274696e6720746f6f20736f6f6e0000000000000000000060448201526064016105d7565b610f1d42611c206122e9565b8111610f6b5760405162461bcd60e51b815260206004820152601860248201527f4e6577207374617274206461746520746f6f20636c6f7365000000000000000060448201526064016105d7565b6000546001600160a01b03163314610fc55760405162461bcd60e51b815260206004820181905260248201527f4f776e61626c653a2063616c6c6572206973206e6f7420746865206f776e657260448201526064016105d7565b8360098660ff1660048110610fdc57610fdc6122b8565b60040201600001819055508260098660ff1660048110610ffe57610ffe6122b8565b60040201600101819055508260098660ff1660048110611020576110206122b8565b60040201600201819055505050505050565b81818060098360ff166004811061104b5761104b6122b8565b60040201541161109d5760405162461bcd60e51b815260206004820152601560248201527f50726963652063616e6e6f7420696e637265617365000000000000000000000060448201526064016105d7565b6110a5611ac3565b60ff168260ff1610156110fa5760405162461bcd60e51b815260206004820152601a60248201527f44726f702068617320616c726561647920636f6d706c6574656400000000000060448201526064016105d7565b6000546001600160a01b031633146111545760405162461bcd60e51b815260206004820181905260248201527f4f776e61626c653a2063616c6c6572206973206e6f7420746865206f776e657260448201526064016105d7565b8260098560ff166004811061116b5761116b6122b8565b60040201600001819055504260098560ff166004811061118d5761118d6122b8565b60040201600101541015610e6a574260098560ff16600481106111b2576111b26122b8565b600402016002018190555050505050565b6000818152600360205260409020546060906001600160a01b03166112505760405162461bcd60e51b815260206004820152602f60248201527f4552433732314d657461646174613a2055524920717565727920666f72206e6f60448201527f6e6578697374656e7420746f6b656e000000000000000000000000000000000060648201526084016105d7565b600061126760408051602081019091526000815290565b9050600081511161128757604051806020016040528060008152506112b2565b8061129184611b18565b6040516020016112a2929190612301565b6040516020818303038152906040525b9392505050565b6000546001600160a01b031633146113135760405162461bcd60e51b815260206004820181905260248201527f4f776e61626c653a2063616c6c6572206973206e6f7420746865206f776e657260448201526064016105d7565b6001600160a01b03811661138f5760405162461bcd60e51b815260206004820152602660248201527f4f776e61626c653a206e6577206f776e657220697320746865207a65726f206160448201527f646472657373000000000000000000000000000000000000000000000000000060648201526084016105d7565b6113988161190e565b50565b606060006113a8836109d7565b67ffffffffffffffff8111156113c0576113c0611ff1565b6040519080825280602002602001820160405280156113e9578160200160208202803683370190505b509050600060015b61046061ffff8216116114915761ffff81166000908152600360205260409020546001600160a01b0316151580156114465750846001600160a01b031661143b8261ffff1661094c565b6001600160a01b0316145b1561147f578061ffff16838361ffff1681518110611466576114666122b8565b60209081029190910101528161147b81612327565b9250505b8061148981612327565b9150506113f1565b50909392505050565b60006001600160e01b031982167f80ac58cd0000000000000000000000000000000000000000000000000000000014806114fd57506001600160e01b031982167f5b5e139f00000000000000000000000000000000000000000000000000000000145b806104ca57507f01ffc9a7000000000000000000000000000000000000000000000000000000006001600160e01b03198316146104ca565b6000818152600560205260409020805473ffffffffffffffffffffffffffffffffffffffff19166001600160a01b03841690811790915581906115778261094c565b6001600160a01b03167f8c5be1e5ebec7d5bd14f71427d1e84f3dd0314c0f7b2291e5b200ac8c7c3b92560405160405180910390a45050565b6000806000806115be611ac3565b905060006104606115cd611c4a565b10159050600060018214801590611602575060098360ff16600481106115f5576115f56122b8565b6004020160010154600014155b801561162b57504260098460ff1660048110611620576116206122b8565b600402016001015411155b60ff9093169692955090935090915050565b6000818152600360205260408120546001600160a01b03166116b65760405162461bcd60e51b815260206004820152602c60248201527f4552433732313a206f70657261746f7220717565727920666f72206e6f6e657860448201526b34b9ba32b73a103a37b5b2b760a11b60648201526084016105d7565b60006116c18361094c565b9050806001600160a01b0316846001600160a01b031614806116fc5750836001600160a01b03166116f184610562565b6001600160a01b0316145b8061172c57506001600160a01b0380821660009081526006602090815260408083209388168352929052205460ff165b949350505050565b826001600160a01b03166117478261094c565b6001600160a01b0316146117c35760405162461bcd60e51b815260206004820152602960248201527f4552433732313a207472616e73666572206f6620746f6b656e2074686174206960448201527f73206e6f74206f776e000000000000000000000000000000000000000000000060648201526084016105d7565b6001600160a01b03821661183e5760405162461bcd60e51b8152602060048201526024808201527f4552433732313a207472616e7366657220746f20746865207a65726f2061646460448201527f726573730000000000000000000000000000000000000000000000000000000060648201526084016105d7565b611849600082611535565b6001600160a01b0383166000908152600460205260408120805460019290611872908490612349565b90915550506001600160a01b03821660009081526004602052604081208054600192906118a09084906122e9565b9091555050600081815260036020526040808220805473ffffffffffffffffffffffffffffffffffffffff19166001600160a01b0386811691821790925591518493918716917fddf252ad1be2c89b69c2b068fc378daa952ba7f163c4a11628f55a4df523b3ef91a4505050565b600080546001600160a01b0383811673ffffffffffffffffffffffffffffffffffffffff19831681178455604051919092169283917f8be0079c531659141344cd1fd0a4f28419497f9722a3daafe3b4186f6b6457e09190a35050565b816001600160a01b0316836001600160a01b031614156119cd5760405162461bcd60e51b815260206004820152601960248201527f4552433732313a20617070726f766520746f2063616c6c65720000000000000060448201526064016105d7565b6001600160a01b03838116600081815260066020908152604080832094871680845294825291829020805460ff191686151590811790915591519182527f17307eab39ab6107e8899845ad3d59bd9653f200f220920489ca2b5937696c31910160405180910390a3505050565b611a45848484611734565b611a5184848484611c55565b610e6a5760405162461bcd60e51b815260206004820152603260248201527f4552433732313a207472616e7366657220746f206e6f6e20455243373231526560448201527f63656976657220696d706c656d656e746572000000000000000000000000000060648201526084016105d7565b600080611ad260016004612349565b90505b60098160048110611ae857611ae86122b8565b600402016003015461ffff16611afc611c4a565b10611b0657919050565b80611b1081612360565b915050611ad5565b606081611b5857505060408051808201909152600181527f3000000000000000000000000000000000000000000000000000000000000000602082015290565b8160005b8115611b825780611b6c816122ce565b9150611b7b9050600a8361223a565b9150611b5c565b60008167ffffffffffffffff811115611b9d57611b9d611ff1565b6040519080825280601f01601f191660200182016040528015611bc7576020820181803683370190505b5090505b841561172c57611bdc600183612349565b9150611be9600a86612377565b611bf49060306122e9565b60f81b818381518110611c0957611c096122b8565b60200101907effffffffffffffffffffffffffffffffffffffffffffffffffffffffffffff1916908160001a905350611c43600a8661223a565b9450611bcb565b600061094760085490565b60006001600160a01b0384163b15611d9e57604051630a85bd0160e11b81526001600160a01b0385169063150b7a0290611c9990339089908890889060040161238b565b6020604051808303816000875af1925050508015611cd4575060408051601f3d908101601f19168201909252611cd1918101906123c7565b60015b611d84573d808015611d02576040519150601f19603f3d011682016040523d82523d6000602084013e611d07565b606091505b508051611d7c5760405162461bcd60e51b815260206004820152603260248201527f4552433732313a207472616e7366657220746f206e6f6e20455243373231526560448201527f63656976657220696d706c656d656e746572000000000000000000000000000060648201526084016105d7565b805181602001fd5b6001600160e01b031916630a85bd0160e11b14905061172c565b506001949350505050565b6001600160e01b03198116811461139857600080fd5b600060208284031215611dd157600080fd5b81356112b281611da9565b60005b83811015611df7578181015183820152602001611ddf565b83811115610e6a5750506000910152565b60008151808452611e20816020860160208601611ddc565b601f01601f19169290920160200192915050565b6020815260006112b26020830184611e08565b600060208284031215611e5957600080fd5b5035919050565b80356001600160a01b038116811461090157600080fd5b60008060408385031215611e8a57600080fd5b611e9383611e60565b946020939093013593505050565b600080600060608486031215611eb657600080fd5b611ebf84611e60565b9250611ecd60208501611e60565b9150604084013590509250925092565b60008060408385031215611ef057600080fd5b50508035926020909101359150565b600060208284031215611f1157600080fd5b6112b282611e60565b602080825282518282018190526000919060409081850190868401855b82811015611f75578151805185528681015187860152858101518686015260609081015161ffff169085015260809093019290850190600101611f37565b5091979650505050505050565b60008060408385031215611f9557600080fd5b611f9e83611e60565b915060208301358015158114611fb357600080fd5b809150509250929050565b60008060408385031215611fd157600080fd5b611fda83611e60565b9150602083013561ffff81168114611fb357600080fd5b634e487b7160e01b600052604160045260246000fd5b6000806000806080858703121561201d57600080fd5b61202685611e60565b935061203460208601611e60565b925060408501359150606085013567ffffffffffffffff8082111561205857600080fd5b818701915087601f83011261206c57600080fd5b81358181111561207e5761207e611ff1565b604051601f8201601f19908116603f011681019083821181831017156120a6576120a6611ff1565b816040528281528a60208487010111156120bf57600080fd5b82602086016020830137600060208483010152809550505050505092959194509250565b803560ff8116811461090157600080fd5b60008060006060848603121561210957600080fd5b612112846120e3565b95602085013595506040909401359392505050565b6000806040838503121561213a57600080fd5b611e93836120e3565b6000806040838503121561215657600080fd5b61215f83611e60565b915061216d60208401611e60565b90509250929050565b6020808252825182820181905260009190848201906040850190845b818110156121ae57835183529284019291840191600101612192565b50909695505050505050565b600181811c908216806121ce57607f821691505b60208210811415610c6457634e487b7160e01b600052602260045260246000fd5b634e487b7160e01b600052601160045260246000fd5b600081600019048311821515161561221f5761221f6121ef565b500290565b634e487b7160e01b600052601260045260246000fd5b60008261224957612249612224565b500490565b600061ffff80831681851680830382111561226b5761226b6121ef565b01949350505050565b600061ffff8381169083168181101561228f5761228f6121ef565b039392505050565b600061ffff808416806122ac576122ac612224565b92169190910492915050565b634e487b7160e01b600052603260045260246000fd5b60006000198214156122e2576122e26121ef565b5060010190565b600082198211156122fc576122fc6121ef565b500190565b60008351612313818460208801611ddc565b83519083019061226b818360208801611ddc565b600061ffff8083168181141561233f5761233f6121ef565b6001019392505050565b60008282101561235b5761235b6121ef565b500390565b60008161236f5761236f6121ef565b506000190190565b60008261238657612386612224565b500690565b60006001600160a01b038087168352808616602084015250836040830152608060608301526123bd6080830184611e08565b9695505050505050565b6000602082840312156123d957600080fd5b81516112b281611da956fea26469706673582212206982b6d2b3e6e782c11b800c71807b4b83dc96a8efa42a3b579cbcfde3401abd64736f6c634300080a0033",
  "immutableReferences": {},
  "source": "// The tokens of this contract are licensed under a Creative Commons Attribution-NonCommercial-ShareAlike 4.0 International License (https://creativecommons.org/licenses/by-nc-sa/4.0/)\n// SPDX-License-Identifier:  CC-BY-NC-SA-4.0\npragma solidity ^0.8.0;\n\nimport \"./LadybugDrops.sol\";\n\n\n/**\n * @author WrightCode\n * @title Ladybug Finances\n * @dev Encapsulate the financial side of the contract\n */\ncontract LadybugFinances is LadybugDrops {//, RoyaltiesV2Impl {\n\n    bytes4 private constant _INTERFACE_ID_ERC2981 = 0x2a55205a;\n    uint16 internal constant _DEFAULT_ROYALTY_VALUE = 250; // 2.5%\n    uint16 internal constant _MAX_ROYALTY_VALUE = 450; // 4.5%\n\n    address internal _royaltyRecipient;\n    uint16 private _royaltyBasis = _DEFAULT_ROYALTY_VALUE;\n\n    /**\n     * @dev Sets initial royalty recipient to be the owner()\n     */\n    constructor() {\n        _royaltyRecipient = owner();\n    }\n\n    /**\n     * @dev Modifier that restricts how high the royalties can be.\n     */\n    modifier royaltiesConstraint(uint16 basis) {\n        // restrict the royalties to 4.5% at the most\n        require(_MAX_ROYALTY_VALUE >= basis, \"Royalty basis too high\");\n        _;\n    }\n\n    /**\n     * @dev ERC-2981 interface to retriee royalty information by any service that adheres to the standard and pays royalties.\n     * Some implementations use per-tokenId configurations, but this implementation uses the same recipient and royalty basis\n     * for all tokens.\n     */\n    function royaltyInfo(uint256 _tokenId, uint256 _salePrice)\n        external view returns (address receiver, uint256 royaltyAmount)\n        {\n        return (payable(_royaltyRecipient), uint((_salePrice * _royaltyBasis)/10000));\n    }\n\n    /**\n     * @dev View the royalty recipient and basis values.\n     */\n    function getLadybugRoyaltyInfo() external view returns (address receiver, uint16 basis) {\n        return (_royaltyRecipient, _royaltyBasis);\n    }\n\n    /**\n     * @dev Allows owner to change the royalties and recipient of royalties.\n     */\n    function setLadybugRoyaltyInfo(address _recipient, uint16 _basis) external royaltiesConstraint(_basis) onlyOwner {\n        _royaltyRecipient = _recipient;\n        _royaltyBasis = _basis;\n    }\n\n    /**\n     * @dev Display the balance of funds in the contract, onlyOwner.\n     */\n    function balanceInContract() external view onlyOwner returns(uint) {\n        return address(this).balance;\n    }\n\n    /**\n     * @dev Allows owner to transfer all funds from contract, effectively paying oneself.\n     */\n    function withdrawAll() external onlyOwner returns(uint) {\n        address _owner = owner();\n        uint balance = address(this).balance;\n        payable(_owner).transfer(balance);\n        return balance;\n    }\n\n    /**\n     * @dev Allows owner to transfer some of the funds from contract, effectively paying oneself.\n     */\n    function withdraw(uint balance) external onlyOwner returns(uint) {\n        address _owner = owner();\n        require(balance <= address(this).balance, \"Balance too high\");\n        payable(_owner).transfer(balance);\n        return balance;\n    }\n\n    /**\n     * @dev Supports Interface for ERC-2981\n     */\n    function supportsInterface(bytes4 interfaceId) public view virtual override(ERC721) returns (bool) {\n        if (interfaceId == _INTERFACE_ID_ERC2981) {\n            return true;\n        }\n        return super.supportsInterface(interfaceId);\n    }\n\n\n}\n",
  "sourcePath": "/Users/jwright/Development/ladybugs/contracts/LadybugFinances.sol",
  "compiler": {
    "name": "solc",
    "version": "0.8.10+commit.fc410830.Emscripten.clang"
  },
  "schemaVersion": "3.4.4",
  "updatedAt": "2022-03-05T14:55:00.263Z",
  "devdoc": {
    "author": "WrightCode",
    "details": "Encapsulate the financial side of the contract",
    "kind": "dev",
    "methods": {
      "approve(address,uint256)": {
        "details": "See {IERC721-approve}."
      },
      "balanceInContract()": {
        "details": "Display the balance of funds in the contract, onlyOwner."
      },
      "balanceOf(address)": {
        "details": "See {IERC721-balanceOf}."
      },
      "constructor": {
        "details": "Sets initial royalty recipient to be the owner()"
      },
      "dropPrice(uint8,uint256)": {
        "details": "Decrease the price of an active drop.  Useful if drops \"stall out\". Why would I do this?  Well, I am not convinced the world will love my ladybugs as much as I love my ladybugs, and I am okay with this.  Art is subjective. So if this proves true, then I want the ability to end the mint, and re-evaluate my distribution plan.  I will not abandon my ladybugs."
      },
      "getApproved(uint256)": {
        "details": "See {IERC721-getApproved}."
      },
      "getDrops()": {
        "details": "Return an array of all the drops."
      },
      "getLadybugIdsByOwner(address)": {
        "details": "Return array of ladybug token Ids owned by the address."
      },
      "getLadybugRoyaltyInfo()": {
        "details": "View the royalty recipient and basis values."
      },
      "isApprovedForAll(address,address)": {
        "details": "See {IERC721-isApprovedForAll}."
      },
      "name()": {
        "details": "See {IERC721Metadata-name}."
      },
      "owner()": {
        "details": "Returns the address of the current owner."
      },
      "ownerOf(uint256)": {
        "details": "See {IERC721-ownerOf}."
      },
      "renounceOwnership()": {
        "details": "Leaves the contract without owner. It will not be possible to call `onlyOwner` functions anymore. Can only be called by the current owner. NOTE: Renouncing ownership will leave the contract without an owner, thereby removing any functionality that is only available to the owner."
      },
      "royaltyInfo(uint256,uint256)": {
        "details": "ERC-2981 interface to retriee royalty information by any service that adheres to the standard and pays royalties. Some implementations use per-tokenId configurations, but this implementation uses the same recipient and royalty basis for all tokens."
      },
      "safeTransferFrom(address,address,uint256)": {
        "details": "See {IERC721-safeTransferFrom}."
      },
      "safeTransferFrom(address,address,uint256,bytes)": {
        "details": "See {IERC721-safeTransferFrom}."
      },
      "setApprovalForAll(address,bool)": {
        "details": "See {IERC721-setApprovalForAll}."
      },
      "setLadybugRoyaltyInfo(address,uint16)": {
        "details": "Allows owner to change the royalties and recipient of royalties."
      },
      "status()": {
        "details": "Return the current drop index and whether it's active or not."
      },
      "supportsInterface(bytes4)": {
        "details": "Supports Interface for ERC-2981"
      },
      "symbol()": {
        "details": "See {IERC721Metadata-symbol}."
      },
      "tokenURI(uint256)": {
        "details": "See {IERC721Metadata-tokenURI}."
      },
      "tokensPerDrop()": {
        "details": "Constant, number of tokens per drop."
      },
      "totalSupply()": {
        "details": "The total supply of all ladybug tokens."
      },
      "transferFrom(address,address,uint256)": {
        "details": "See {IERC721-transferFrom}."
      },
      "transferOwnership(address)": {
        "details": "Transfers ownership of the contract to a new account (`newOwner`). Can only be called by the current owner."
      },
      "updateDrop(uint8,uint256,uint256)": {
        "details": "Update the price and date of non-active drops only."
      },
      "withdraw(uint256)": {
        "details": "Allows owner to transfer some of the funds from contract, effectively paying oneself."
      },
      "withdrawAll()": {
        "details": "Allows owner to transfer all funds from contract, effectively paying oneself."
      }
    },
    "title": "Ladybug Finances",
    "version": 1
  },
  "userdoc": {
    "kind": "user",
    "methods": {},
    "version": 1
  }
}