{
  "contractName": "LadybugDrops",
  "abi": [
    {
      "anonymous": false,
      "inputs": [
        {
          "indexed": true,
          "internalType": "address",
          "name": "owner",
          "type": "address"
        },
        {
          "indexed": true,
          "internalType": "address",
          "name": "approved",
          "type": "address"
        },
        {
          "indexed": true,
          "internalType": "uint256",
          "name": "tokenId",
          "type": "uint256"
        }
      ],
      "name": "Approval",
      "type": "event"
    },
    {
      "anonymous": false,
      "inputs": [
        {
          "indexed": true,
          "internalType": "address",
          "name": "owner",
          "type": "address"
        },
        {
          "indexed": true,
          "internalType": "address",
          "name": "operator",
          "type": "address"
        },
        {
          "indexed": false,
          "internalType": "bool",
          "name": "approved",
          "type": "bool"
        }
      ],
      "name": "ApprovalForAll",
      "type": "event"
    },
    {
      "anonymous": false,
      "inputs": [
        {
          "indexed": true,
          "internalType": "address",
          "name": "previousOwner",
          "type": "address"
        },
        {
          "indexed": true,
          "internalType": "address",
          "name": "newOwner",
          "type": "address"
        }
      ],
      "name": "OwnershipTransferred",
      "type": "event"
    },
    {
      "anonymous": false,
      "inputs": [
        {
          "indexed": true,
          "internalType": "address",
          "name": "from",
          "type": "address"
        },
        {
          "indexed": true,
          "internalType": "address",
          "name": "to",
          "type": "address"
        },
        {
          "indexed": true,
          "internalType": "uint256",
          "name": "tokenId",
          "type": "uint256"
        }
      ],
      "name": "Transfer",
      "type": "event"
    },
    {
      "inputs": [
        {
          "internalType": "address",
          "name": "to",
          "type": "address"
        },
        {
          "internalType": "uint256",
          "name": "tokenId",
          "type": "uint256"
        }
      ],
      "name": "approve",
      "outputs": [],
      "stateMutability": "nonpayable",
      "type": "function"
    },
    {
      "inputs": [
        {
          "internalType": "address",
          "name": "owner",
          "type": "address"
        }
      ],
      "name": "balanceOf",
      "outputs": [
        {
          "internalType": "uint256",
          "name": "",
          "type": "uint256"
        }
      ],
      "stateMutability": "view",
      "type": "function"
    },
    {
      "inputs": [
        {
          "internalType": "uint256",
          "name": "tokenId",
          "type": "uint256"
        }
      ],
      "name": "getApproved",
      "outputs": [
        {
          "internalType": "address",
          "name": "",
          "type": "address"
        }
      ],
      "stateMutability": "view",
      "type": "function"
    },
    {
      "inputs": [
        {
          "internalType": "address",
          "name": "bugOwner",
          "type": "address"
        }
      ],
      "name": "getLadybugIdsByOwner",
      "outputs": [
        {
          "internalType": "uint256[]",
          "name": "",
          "type": "uint256[]"
        }
      ],
      "stateMutability": "view",
      "type": "function"
    },
    {
      "inputs": [
        {
          "internalType": "address",
          "name": "owner",
          "type": "address"
        },
        {
          "internalType": "address",
          "name": "operator",
          "type": "address"
        }
      ],
      "name": "isApprovedForAll",
      "outputs": [
        {
          "internalType": "bool",
          "name": "",
          "type": "bool"
        }
      ],
      "stateMutability": "view",
      "type": "function"
    },
    {
      "inputs": [],
      "name": "name",
      "outputs": [
        {
          "internalType": "string",
          "name": "",
          "type": "string"
        }
      ],
      "stateMutability": "view",
      "type": "function"
    },
    {
      "inputs": [],
      "name": "owner",
      "outputs": [
        {
          "internalType": "address",
          "name": "",
          "type": "address"
        }
      ],
      "stateMutability": "view",
      "type": "function"
    },
    {
      "inputs": [
        {
          "internalType": "uint256",
          "name": "tokenId",
          "type": "uint256"
        }
      ],
      "name": "ownerOf",
      "outputs": [
        {
          "internalType": "address",
          "name": "",
          "type": "address"
        }
      ],
      "stateMutability": "view",
      "type": "function"
    },
    {
      "inputs": [],
      "name": "renounceOwnership",
      "outputs": [],
      "stateMutability": "nonpayable",
      "type": "function"
    },
    {
      "inputs": [
        {
          "internalType": "address",
          "name": "from",
          "type": "address"
        },
        {
          "internalType": "address",
          "name": "to",
          "type": "address"
        },
        {
          "internalType": "uint256",
          "name": "tokenId",
          "type": "uint256"
        }
      ],
      "name": "safeTransferFrom",
      "outputs": [],
      "stateMutability": "nonpayable",
      "type": "function"
    },
    {
      "inputs": [
        {
          "internalType": "address",
          "name": "from",
          "type": "address"
        },
        {
          "internalType": "address",
          "name": "to",
          "type": "address"
        },
        {
          "internalType": "uint256",
          "name": "tokenId",
          "type": "uint256"
        },
        {
          "internalType": "bytes",
          "name": "_data",
          "type": "bytes"
        }
      ],
      "name": "safeTransferFrom",
      "outputs": [],
      "stateMutability": "nonpayable",
      "type": "function"
    },
    {
      "inputs": [
        {
          "internalType": "address",
          "name": "operator",
          "type": "address"
        },
        {
          "internalType": "bool",
          "name": "approved",
          "type": "bool"
        }
      ],
      "name": "setApprovalForAll",
      "outputs": [],
      "stateMutability": "nonpayable",
      "type": "function"
    },
    {
      "inputs": [
        {
          "internalType": "bytes4",
          "name": "interfaceId",
          "type": "bytes4"
        }
      ],
      "name": "supportsInterface",
      "outputs": [
        {
          "internalType": "bool",
          "name": "",
          "type": "bool"
        }
      ],
      "stateMutability": "view",
      "type": "function"
    },
    {
      "inputs": [],
      "name": "symbol",
      "outputs": [
        {
          "internalType": "string",
          "name": "",
          "type": "string"
        }
      ],
      "stateMutability": "view",
      "type": "function"
    },
    {
      "inputs": [
        {
          "internalType": "uint256",
          "name": "tokenId",
          "type": "uint256"
        }
      ],
      "name": "tokenURI",
      "outputs": [
        {
          "internalType": "string",
          "name": "",
          "type": "string"
        }
      ],
      "stateMutability": "view",
      "type": "function"
    },
    {
      "inputs": [],
      "name": "tokensPerDrop",
      "outputs": [
        {
          "internalType": "uint16",
          "name": "",
          "type": "uint16"
        }
      ],
      "stateMutability": "pure",
      "type": "function"
    },
    {
      "inputs": [],
      "name": "totalSupply",
      "outputs": [
        {
          "internalType": "uint16",
          "name": "",
          "type": "uint16"
        }
      ],
      "stateMutability": "pure",
      "type": "function"
    },
    {
      "inputs": [
        {
          "internalType": "address",
          "name": "from",
          "type": "address"
        },
        {
          "internalType": "address",
          "name": "to",
          "type": "address"
        },
        {
          "internalType": "uint256",
          "name": "tokenId",
          "type": "uint256"
        }
      ],
      "name": "transferFrom",
      "outputs": [],
      "stateMutability": "nonpayable",
      "type": "function"
    },
    {
      "inputs": [
        {
          "internalType": "address",
          "name": "newOwner",
          "type": "address"
        }
      ],
      "name": "transferOwnership",
      "outputs": [],
      "stateMutability": "nonpayable",
      "type": "function"
    },
    {
      "inputs": [],
      "name": "getDrops",
      "outputs": [
        {
          "components": [
            {
              "internalType": "uint256",
              "name": "price",
              "type": "uint256"
            },
            {
              "internalType": "uint256",
              "name": "date",
              "type": "uint256"
            },
            {
              "internalType": "uint256",
              "name": "priceDate",
              "type": "uint256"
            },
            {
              "internalType": "uint16",
              "name": "startAtIndex",
              "type": "uint16"
            }
          ],
          "internalType": "struct LadybugFactory.Drop[]",
          "name": "",
          "type": "tuple[]"
        }
      ],
      "stateMutability": "view",
      "type": "function"
    },
    {
      "inputs": [
        {
          "internalType": "uint8",
          "name": "index",
          "type": "uint8"
        },
        {
          "internalType": "uint256",
          "name": "price",
          "type": "uint256"
        },
        {
          "internalType": "uint256",
          "name": "date",
          "type": "uint256"
        }
      ],
      "name": "updateDrop",
      "outputs": [],
      "stateMutability": "nonpayable",
      "type": "function"
    },
    {
      "inputs": [
        {
          "internalType": "uint8",
          "name": "index",
          "type": "uint8"
        },
        {
          "internalType": "uint256",
          "name": "price",
          "type": "uint256"
        }
      ],
      "name": "dropPrice",
      "outputs": [],
      "stateMutability": "nonpayable",
      "type": "function"
    },
    {
      "inputs": [],
      "name": "status",
      "outputs": [
        {
          "internalType": "uint256",
          "name": "index",
          "type": "uint256"
        },
        {
          "internalType": "bool",
          "name": "active",
          "type": "bool"
        },
        {
          "internalType": "bool",
          "name": "complete",
          "type": "bool"
        }
      ],
      "stateMutability": "view",
      "type": "function"
    }
  ],
  "bytecode": "0x6080604052600780546001600160a01b031916733254c065f85167003f165e134a391a6ec2c262791790553480156200003757600080fd5b506040518060400160405280600d81526020016c2630b23cb13ab3902837bbb2b960991b815250604051806040016040528060078152602001664c41445942554760c81b8152506200009862000092620000cc60201b60201c565b620000d0565b8151620000ad90600190602085019062000120565b508051620000c390600290602084019062000120565b50505062000203565b3390565b600080546001600160a01b038381166001600160a01b0319831681178455604051919092169283917f8be0079c531659141344cd1fd0a4f28419497f9722a3daafe3b4186f6b6457e09190a35050565b8280546200012e90620001c6565b90600052602060002090601f0160209004810192826200015257600085556200019d565b82601f106200016d57805160ff19168380011785556200019d565b828001600101855582156200019d579182015b828111156200019d57825182559160200191906001019062000180565b50620001ab929150620001af565b5090565b5b80821115620001ab5760008155600101620001b0565b600181811c90821680620001db57607f821691505b60208210811415620001fd57634e487b7160e01b600052602260045260246000fd5b50919050565b611f5c80620002136000396000f3fe608060405234801561001057600080fd5b506004361061018d5760003560e01c8063715018a6116100e3578063bcbc9cfd1161008c578063e985e9c511610066578063e985e9c514610342578063f2fde38b1461037e578063f925fa871461039157600080fd5b8063bcbc9cfd14610309578063c829bb051461031c578063c87b56dd1461032f57600080fd5b806395d89b41116100bd57806395d89b41146102db578063a22cb465146102e3578063b88d4fde146102f657600080fd5b8063715018a6146102ad5780638691afb5146102b55780638da5cb5b146102ca57600080fd5b8063200d2ed211610145578063508fb73b1161011f578063508fb73b146102715780636352211e1461027957806370a082311461028c57600080fd5b8063200d2ed21461022657806323b872dd1461024b57806342842e0e1461025e57600080fd5b8063081812fc11610176578063081812fc146101cf578063095ea7b3146101fa57806318160ddd1461020f57600080fd5b806301ffc9a71461019257806306fdde03146101ba575b600080fd5b6101a56101a0366004611970565b6103b1565b60405190151581526020015b60405180910390f35b6101c261044e565b6040516101b191906119e5565b6101e26101dd3660046119f8565b6104e0565b6040516001600160a01b0390911681526020016101b1565b61020d610208366004611a2d565b61057a565b005b6104605b60405161ffff90911681526020016101b1565b61022e6106ac565b6040805193845291151560208401521515908201526060016101b1565b61020d610259366004611a57565b6106c4565b61020d61026c366004611a57565b61074b565b610213610766565b6101e26102873660046119f8565b610791565b61029f61029a366004611a93565b61081c565b6040519081526020016101b1565b61020d6108b6565b6102bd61091c565b6040516101b19190611aae565b6000546001600160a01b03166101e2565b6101c2610a10565b61020d6102f1366004611b16565b610a1f565b61020d610304366004611b68565b610a2e565b61020d610317366004611c55565b610abc565b61020d61032a366004611c88565b610c7e565b6101c261033d3660046119f8565b610e0f565b6101a5610350366004611ca4565b6001600160a01b03918216600090815260066020908152604080832093909416825291909152205460ff1690565b61020d61038c366004611a93565b610f05565b6103a461039f366004611a93565b610fe7565b6040516101b19190611cd7565b60006001600160e01b031982167f80ac58cd00000000000000000000000000000000000000000000000000000000148061041457506001600160e01b031982167f5b5e139f00000000000000000000000000000000000000000000000000000000145b8061044857507f01ffc9a7000000000000000000000000000000000000000000000000000000006001600160e01b03198316145b92915050565b60606001805461045d90611d1b565b80601f016020809104026020016040519081016040528092919081815260200182805461048990611d1b565b80156104d65780601f106104ab576101008083540402835291602001916104d6565b820191906000526020600020905b8154815290600101906020018083116104b957829003601f168201915b5050505050905090565b6000818152600360205260408120546001600160a01b031661055e5760405162461bcd60e51b815260206004820152602c60248201527f4552433732313a20617070726f76656420717565727920666f72206e6f6e657860448201526b34b9ba32b73a103a37b5b2b760a11b60648201526084015b60405180910390fd5b506000908152600560205260409020546001600160a01b031690565b600061058582610791565b9050806001600160a01b0316836001600160a01b0316141561060f5760405162461bcd60e51b815260206004820152602160248201527f4552433732313a20617070726f76616c20746f2063757272656e74206f776e6560448201527f72000000000000000000000000000000000000000000000000000000000000006064820152608401610555565b336001600160a01b038216148061062b575061062b8133610350565b61069d5760405162461bcd60e51b815260206004820152603860248201527f4552433732313a20617070726f76652063616c6c6572206973206e6f74206f7760448201527f6e6572206e6f7220617070726f76656420666f7220616c6c00000000000000006064820152608401610555565b6106a783836110e6565b505050565b60008060006106b9611161565b925092509250909192565b6106ce33826111ee565b6107405760405162461bcd60e51b815260206004820152603160248201527f4552433732313a207472616e736665722063616c6c6572206973206e6f74206f60448201527f776e6572206e6f7220617070726f7665640000000000000000000000000000006064820152608401610555565b6106a78383836112e5565b6106a783838360405180602001604052806000815250610a2e565b6000600461077660206040611d66565b61078290610460611d8c565b61078c9190611dc5565b905090565b6000818152600360205260408120546001600160a01b0316806104485760405162461bcd60e51b815260206004820152602960248201527f4552433732313a206f776e657220717565727920666f72206e6f6e657869737460448201527f656e7420746f6b656e00000000000000000000000000000000000000000000006064820152608401610555565b60006001600160a01b03821661089a5760405162461bcd60e51b815260206004820152602a60248201527f4552433732313a2062616c616e636520717565727920666f7220746865207a6560448201527f726f2061646472657373000000000000000000000000000000000000000000006064820152608401610555565b506001600160a01b031660009081526004602052604090205490565b6000546001600160a01b031633146109105760405162461bcd60e51b815260206004820181905260248201527f4f776e61626c653a2063616c6c6572206973206e6f7420746865206f776e65726044820152606401610555565b61091a60006114bf565b565b60408051600480825260a0820190925260609160009190816020015b6109676040518060800160405280600081526020016000815260200160008152602001600061ffff1681525090565b81526020019060019003908161093857905050905060005b6004811015610a0a576009816004811061099b5761099b611de6565b6040805160808101825260049290920292909201805482526001810154602083015260028101549282019290925260039091015461ffff16606082015282518390839081106109ec576109ec611de6565b60200260200101819052508080610a0290611dfc565b91505061097f565b50919050565b60606002805461045d90611d1b565b610a2a33838361151c565b5050565b610a3833836111ee565b610aaa5760405162461bcd60e51b815260206004820152603160248201527f4552433732313a207472616e736665722063616c6c6572206973206e6f74206f60448201527f776e6572206e6f7220617070726f7665640000000000000000000000000000006064820152608401610555565b610ab6848484846115eb565b50505050565b828160098260ff1660048110610ad457610ad4611de6565b600402016001015460001480610b115750610af142610e10611e17565b60098360ff1660048110610b0757610b07611de6565b6004020160010154115b610b5d5760405162461bcd60e51b815260206004820152601660248201527f44726f70207374617274696e6720746f6f20736f6f6e000000000000000000006044820152606401610555565b610b6942611c20611e17565b8111610bb75760405162461bcd60e51b815260206004820152601860248201527f4e6577207374617274206461746520746f6f20636c6f736500000000000000006044820152606401610555565b6000546001600160a01b03163314610c115760405162461bcd60e51b815260206004820181905260248201527f4f776e61626c653a2063616c6c6572206973206e6f7420746865206f776e65726044820152606401610555565b8360098660ff1660048110610c2857610c28611de6565b60040201600001819055508260098660ff1660048110610c4a57610c4a611de6565b60040201600101819055508260098660ff1660048110610c6c57610c6c611de6565b60040201600201819055505050505050565b81818060098360ff1660048110610c9757610c97611de6565b600402015411610ce95760405162461bcd60e51b815260206004820152601560248201527f50726963652063616e6e6f7420696e63726561736500000000000000000000006044820152606401610555565b610cf1611674565b60ff168260ff161015610d465760405162461bcd60e51b815260206004820152601a60248201527f44726f702068617320616c726561647920636f6d706c657465640000000000006044820152606401610555565b6000546001600160a01b03163314610da05760405162461bcd60e51b815260206004820181905260248201527f4f776e61626c653a2063616c6c6572206973206e6f7420746865206f776e65726044820152606401610555565b8260098560ff1660048110610db757610db7611de6565b60040201600001819055504260098560ff1660048110610dd957610dd9611de6565b60040201600101541015610ab6574260098560ff1660048110610dfe57610dfe611de6565b600402016002018190555050505050565b6000818152600360205260409020546060906001600160a01b0316610e9c5760405162461bcd60e51b815260206004820152602f60248201527f4552433732314d657461646174613a2055524920717565727920666f72206e6f60448201527f6e6578697374656e7420746f6b656e00000000000000000000000000000000006064820152608401610555565b6000610eb360408051602081019091526000815290565b90506000815111610ed35760405180602001604052806000815250610efe565b80610edd846116c9565b604051602001610eee929190611e2f565b6040516020818303038152906040525b9392505050565b6000546001600160a01b03163314610f5f5760405162461bcd60e51b815260206004820181905260248201527f4f776e61626c653a2063616c6c6572206973206e6f7420746865206f776e65726044820152606401610555565b6001600160a01b038116610fdb5760405162461bcd60e51b815260206004820152602660248201527f4f776e61626c653a206e6577206f776e657220697320746865207a65726f206160448201527f64647265737300000000000000000000000000000000000000000000000000006064820152608401610555565b610fe4816114bf565b50565b60606000610ff48361081c565b67ffffffffffffffff81111561100c5761100c611b52565b604051908082528060200260200182016040528015611035578160200160208202803683370190505b509050600060015b61046061ffff8216116110dd5761ffff81166000908152600360205260409020546001600160a01b0316151580156110925750846001600160a01b03166110878261ffff16610791565b6001600160a01b0316145b156110cb578061ffff16838361ffff16815181106110b2576110b2611de6565b6020908102919091010152816110c781611e55565b9250505b806110d581611e55565b91505061103d565b50909392505050565b6000818152600560205260409020805473ffffffffffffffffffffffffffffffffffffffff19166001600160a01b038416908117909155819061112882610791565b6001600160a01b03167f8c5be1e5ebec7d5bd14f71427d1e84f3dd0314c0f7b2291e5b200ac8c7c3b92560405160405180910390a45050565b60008060008061116f611674565b9050600061046061117e6117fb565b101590506000600182148015906111b3575060098360ff16600481106111a6576111a6611de6565b6004020160010154600014155b80156111dc57504260098460ff16600481106111d1576111d1611de6565b600402016001015411155b60ff9093169692955090935090915050565b6000818152600360205260408120546001600160a01b03166112675760405162461bcd60e51b815260206004820152602c60248201527f4552433732313a206f70657261746f7220717565727920666f72206e6f6e657860448201526b34b9ba32b73a103a37b5b2b760a11b6064820152608401610555565b600061127283610791565b9050806001600160a01b0316846001600160a01b031614806112ad5750836001600160a01b03166112a2846104e0565b6001600160a01b0316145b806112dd57506001600160a01b0380821660009081526006602090815260408083209388168352929052205460ff165b949350505050565b826001600160a01b03166112f882610791565b6001600160a01b0316146113745760405162461bcd60e51b815260206004820152602960248201527f4552433732313a207472616e73666572206f6620746f6b656e2074686174206960448201527f73206e6f74206f776e00000000000000000000000000000000000000000000006064820152608401610555565b6001600160a01b0382166113ef5760405162461bcd60e51b8152602060048201526024808201527f4552433732313a207472616e7366657220746f20746865207a65726f2061646460448201527f72657373000000000000000000000000000000000000000000000000000000006064820152608401610555565b6113fa6000826110e6565b6001600160a01b0383166000908152600460205260408120805460019290611423908490611e77565b90915550506001600160a01b0382166000908152600460205260408120805460019290611451908490611e17565b9091555050600081815260036020526040808220805473ffffffffffffffffffffffffffffffffffffffff19166001600160a01b0386811691821790925591518493918716917fddf252ad1be2c89b69c2b068fc378daa952ba7f163c4a11628f55a4df523b3ef91a4505050565b600080546001600160a01b0383811673ffffffffffffffffffffffffffffffffffffffff19831681178455604051919092169283917f8be0079c531659141344cd1fd0a4f28419497f9722a3daafe3b4186f6b6457e09190a35050565b816001600160a01b0316836001600160a01b0316141561157e5760405162461bcd60e51b815260206004820152601960248201527f4552433732313a20617070726f766520746f2063616c6c6572000000000000006044820152606401610555565b6001600160a01b03838116600081815260066020908152604080832094871680845294825291829020805460ff191686151590811790915591519182527f17307eab39ab6107e8899845ad3d59bd9653f200f220920489ca2b5937696c31910160405180910390a3505050565b6115f68484846112e5565b61160284848484611806565b610ab65760405162461bcd60e51b815260206004820152603260248201527f4552433732313a207472616e7366657220746f206e6f6e20455243373231526560448201527f63656976657220696d706c656d656e74657200000000000000000000000000006064820152608401610555565b60008061168360016004611e77565b90505b6009816004811061169957611699611de6565b600402016003015461ffff166116ad6117fb565b106116b757919050565b806116c181611e8e565b915050611686565b60608161170957505060408051808201909152600181527f3000000000000000000000000000000000000000000000000000000000000000602082015290565b8160005b8115611733578061171d81611dfc565b915061172c9050600a83611ea5565b915061170d565b60008167ffffffffffffffff81111561174e5761174e611b52565b6040519080825280601f01601f191660200182016040528015611778576020820181803683370190505b5090505b84156112dd5761178d600183611e77565b915061179a600a86611eb9565b6117a5906030611e17565b60f81b8183815181106117ba576117ba611de6565b60200101907effffffffffffffffffffffffffffffffffffffffffffffffffffffffffffff1916908160001a9053506117f4600a86611ea5565b945061177c565b600061078c60085490565b60006001600160a01b0384163b1561194f57604051630a85bd0160e11b81526001600160a01b0385169063150b7a029061184a903390899088908890600401611ecd565b6020604051808303816000875af1925050508015611885575060408051601f3d908101601f1916820190925261188291810190611f09565b60015b611935573d8080156118b3576040519150601f19603f3d011682016040523d82523d6000602084013e6118b8565b606091505b50805161192d5760405162461bcd60e51b815260206004820152603260248201527f4552433732313a207472616e7366657220746f206e6f6e20455243373231526560448201527f63656976657220696d706c656d656e74657200000000000000000000000000006064820152608401610555565b805181602001fd5b6001600160e01b031916630a85bd0160e11b1490506112dd565b506001949350505050565b6001600160e01b031981168114610fe457600080fd5b60006020828403121561198257600080fd5b8135610efe8161195a565b60005b838110156119a8578181015183820152602001611990565b83811115610ab65750506000910152565b600081518084526119d181602086016020860161198d565b601f01601f19169290920160200192915050565b602081526000610efe60208301846119b9565b600060208284031215611a0a57600080fd5b5035919050565b80356001600160a01b0381168114611a2857600080fd5b919050565b60008060408385031215611a4057600080fd5b611a4983611a11565b946020939093013593505050565b600080600060608486031215611a6c57600080fd5b611a7584611a11565b9250611a8360208501611a11565b9150604084013590509250925092565b600060208284031215611aa557600080fd5b610efe82611a11565b602080825282518282018190526000919060409081850190868401855b82811015611b09578151805185528681015187860152858101518686015260609081015161ffff169085015260809093019290850190600101611acb565b5091979650505050505050565b60008060408385031215611b2957600080fd5b611b3283611a11565b915060208301358015158114611b4757600080fd5b809150509250929050565b634e487b7160e01b600052604160045260246000fd5b60008060008060808587031215611b7e57600080fd5b611b8785611a11565b9350611b9560208601611a11565b925060408501359150606085013567ffffffffffffffff80821115611bb957600080fd5b818701915087601f830112611bcd57600080fd5b813581811115611bdf57611bdf611b52565b604051601f8201601f19908116603f01168101908382118183101715611c0757611c07611b52565b816040528281528a6020848701011115611c2057600080fd5b82602086016020830137600060208483010152809550505050505092959194509250565b803560ff81168114611a2857600080fd5b600080600060608486031215611c6a57600080fd5b611c7384611c44565b95602085013595506040909401359392505050565b60008060408385031215611c9b57600080fd5b611a4983611c44565b60008060408385031215611cb757600080fd5b611cc083611a11565b9150611cce60208401611a11565b90509250929050565b6020808252825182820181905260009190848201906040850190845b81811015611d0f57835183529284019291840191600101611cf3565b50909695505050505050565b600181811c90821680611d2f57607f821691505b60208210811415610a0a57634e487b7160e01b600052602260045260246000fd5b634e487b7160e01b600052601160045260246000fd5b600061ffff808316818516808303821115611d8357611d83611d50565b01949350505050565b600061ffff83811690831681811015611da757611da7611d50565b039392505050565b634e487b7160e01b600052601260045260246000fd5b600061ffff80841680611dda57611dda611daf565b92169190910492915050565b634e487b7160e01b600052603260045260246000fd5b6000600019821415611e1057611e10611d50565b5060010190565b60008219821115611e2a57611e2a611d50565b500190565b60008351611e4181846020880161198d565b835190830190611d8381836020880161198d565b600061ffff80831681811415611e6d57611e6d611d50565b6001019392505050565b600082821015611e8957611e89611d50565b500390565b600081611e9d57611e9d611d50565b506000190190565b600082611eb457611eb4611daf565b500490565b600082611ec857611ec8611daf565b500690565b60006001600160a01b03808716835280861660208401525083604083015260806060830152611eff60808301846119b9565b9695505050505050565b600060208284031215611f1b57600080fd5b8151610efe8161195a56fea26469706673582212201d0735f04720db3d52c34e2cd2bdf743edce13f15ae427dafd422457ad5a25b064736f6c634300080a0033",
  "immutableReferences": {},
  "source": "// The tokens of this contract are licensed under a Creative Commons Attribution-NonCommercial-ShareAlike 4.0 International License (https://creativecommons.org/licenses/by-nc-sa/4.0/)\n// SPDX-License-Identifier:  CC-BY-NC-SA-4.0\npragma solidity ^0.8.0;\n\nimport \"./LadybugFactory.sol\";\n\n\n/**\n * @author WrightCode\n * @title Ladybug Drops\n * @dev Encapsulates the data surrounding the 4 ladybug \"drops\".\n */\ncontract LadybugDrops is LadybugFactory {\n\n    /**\n     * @dev Modifier that prevents a date change once a drop has started.\n     */\n    modifier dropNotStarted(uint8 index, uint date) {\n        // the drop we're updating can't be starting within the hour.\n        require(drops[index].date == 0 || drops[index].date > block.timestamp + 3600, \"Drop starting too soon\");\n        // the _date value must be two hours out from now\n        require(date > block.timestamp + 7200, \"New start date too close\");\n        _;\n    }\n\n    /**\n     * @dev Modifier to ensure a price change on an active drop will be a descrease.\n     * This contract does not allow a price increase on active drops.\n     */\n    modifier priceNotIncreased(uint8 index, uint price) {\n        // the new price must be lower\n        require(drops[index].price > price, \"Price cannot increase\");\n        // price drop must be for current or future drop\n        require(index >= _currentDropIndex(), \"Drop has already completed\");\n        _;\n    }\n\n    /**\n     * @dev Return an array of all the drops.\n     */\n    function getDrops() external view returns (Drop[] memory) {\n        Drop[] memory results = new Drop[](drops.length);\n        for (uint i = 0; i < drops.length; i++) {\n            results[i] = drops[i];\n        }\n        return results;\n    }\n\n    /**\n     * @dev Update the price and date of non-active drops only.\n     */\n    function updateDrop(uint8 index, uint price, uint date)\n        external dropNotStarted(index, date) onlyOwner\n        {\n        drops[index].price = price;\n        drops[index].date = date;\n        // the price will go into effect on date\n        drops[index].priceDate = date;\n    }\n\n    /**\n     * @dev Decrease the price of an active drop.  Useful if drops \"stall out\".\n     * Why would I do this?  Well, I am not convinced the world will love my ladybugs as\n     * much as I love my ladybugs, and I am okay with this.  Art is subjective.\n     * So if this proves true, then I want the ability to end the mint, and\n     * re-evaluate my distribution plan.  I will not abandon my ladybugs.\n     */\n    function dropPrice(uint8 index, uint price)\n        external priceNotIncreased(index, price) onlyOwner\n        {\n        drops[index].price = price;\n        // the price will go into effect now, if the drops[index].date < block timestamp;\n        if (drops[index].date < block.timestamp) {\n            // drop is active, so set new priceDate\n            drops[index].priceDate = block.timestamp;\n        }\n    }\n\n    /**\n     * @dev Return the current drop index and whether it's active or not.\n     */\n    function status() external view returns (uint index, bool active, bool complete) {\n        return _status();\n    }\n\n    function _initializeDrops() internal onlyOwner {\n        uint16 startAtIndex = _RESERVED_LADYBUGS;\n        for (uint8 i = 0; i < drops.length; i++) {\n            drops[i].startAtIndex = startAtIndex;\n            startAtIndex += _TOKENS_PER_DROP;\n        }\n    }\n\n    /**\n     * @dev Returns the current drop (0-3) in which the next ladybug would be minted.\n     * This does not take the drop date into account, so it might not be an active drop.\n     */\n    function _currentDropIndex() internal view returns (uint8) {\n        for (uint i = drops.length - 1; i >= 0; i--) {\n            if (_currentSupplyIndex() >= drops[i].startAtIndex) {\n                return uint8(i);\n            }\n        }\n        // should never reach this line of code\n        revert(\"Error finding drop index\");\n    }\n\n    /**\n     * @dev Same call as status, but this one is 'internal'.  Breaking out the two\n     * is being done for gas efficiency, when status is needed internally.\n     */\n    function _status() internal view returns (uint index, bool active, bool complete) {\n        uint8 currentIndex = _currentDropIndex();\n        bool isComplete = _currentSupplyIndex() >= _MAX_LADYBUGS;\n        // a drop is active if all are not complete, the date is non-zero,\n        // and the blockchain time is greater than the drop date.\n        bool isActive = isComplete != true &&\n            drops[currentIndex].date != 0 &&\n            drops[currentIndex].date <= block.timestamp;\n        return (currentIndex, isActive, isComplete);\n    }\n\n}\n",
  "sourcePath": "/Users/jwright/Development/ladybugs/contracts/LadybugDrops.sol",
  "compiler": {
    "name": "solc",
    "version": "0.8.10+commit.fc410830.Emscripten.clang"
  },
  "schemaVersion": "3.4.4",
  "updatedAt": "2022-03-05T14:55:00.250Z",
  "devdoc": {
    "author": "WrightCode",
    "details": "Encapsulates the data surrounding the 4 ladybug \"drops\".",
    "kind": "dev",
    "methods": {
      "approve(address,uint256)": {
        "details": "See {IERC721-approve}."
      },
      "balanceOf(address)": {
        "details": "See {IERC721-balanceOf}."
      },
      "dropPrice(uint8,uint256)": {
        "details": "Decrease the price of an active drop.  Useful if drops \"stall out\". Why would I do this?  Well, I am not convinced the world will love my ladybugs as much as I love my ladybugs, and I am okay with this.  Art is subjective. So if this proves true, then I want the ability to end the mint, and re-evaluate my distribution plan.  I will not abandon my ladybugs."
      },
      "getApproved(uint256)": {
        "details": "See {IERC721-getApproved}."
      },
      "getDrops()": {
        "details": "Return an array of all the drops."
      },
      "getLadybugIdsByOwner(address)": {
        "details": "Return array of ladybug token Ids owned by the address."
      },
      "isApprovedForAll(address,address)": {
        "details": "See {IERC721-isApprovedForAll}."
      },
      "name()": {
        "details": "See {IERC721Metadata-name}."
      },
      "owner()": {
        "details": "Returns the address of the current owner."
      },
      "ownerOf(uint256)": {
        "details": "See {IERC721-ownerOf}."
      },
      "renounceOwnership()": {
        "details": "Leaves the contract without owner. It will not be possible to call `onlyOwner` functions anymore. Can only be called by the current owner. NOTE: Renouncing ownership will leave the contract without an owner, thereby removing any functionality that is only available to the owner."
      },
      "safeTransferFrom(address,address,uint256)": {
        "details": "See {IERC721-safeTransferFrom}."
      },
      "safeTransferFrom(address,address,uint256,bytes)": {
        "details": "See {IERC721-safeTransferFrom}."
      },
      "setApprovalForAll(address,bool)": {
        "details": "See {IERC721-setApprovalForAll}."
      },
      "status()": {
        "details": "Return the current drop index and whether it's active or not."
      },
      "supportsInterface(bytes4)": {
        "details": "See {IERC165-supportsInterface}."
      },
      "symbol()": {
        "details": "See {IERC721Metadata-symbol}."
      },
      "tokenURI(uint256)": {
        "details": "See {IERC721Metadata-tokenURI}."
      },
      "tokensPerDrop()": {
        "details": "Constant, number of tokens per drop."
      },
      "totalSupply()": {
        "details": "The total supply of all ladybug tokens."
      },
      "transferFrom(address,address,uint256)": {
        "details": "See {IERC721-transferFrom}."
      },
      "transferOwnership(address)": {
        "details": "Transfers ownership of the contract to a new account (`newOwner`). Can only be called by the current owner."
      },
      "updateDrop(uint8,uint256,uint256)": {
        "details": "Update the price and date of non-active drops only."
      }
    },
    "title": "Ladybug Drops",
    "version": 1
  },
  "userdoc": {
    "kind": "user",
    "methods": {},
    "version": 1
  }
}