{
  "contractName": "LadybugFactory",
  "abi": [
    {
      "inputs": [],
      "stateMutability": "nonpayable",
      "type": "constructor"
    },
    {
      "anonymous": false,
      "inputs": [
        {
          "indexed": true,
          "internalType": "address",
          "name": "owner",
          "type": "address"
        },
        {
          "indexed": true,
          "internalType": "address",
          "name": "approved",
          "type": "address"
        },
        {
          "indexed": true,
          "internalType": "uint256",
          "name": "tokenId",
          "type": "uint256"
        }
      ],
      "name": "Approval",
      "type": "event"
    },
    {
      "anonymous": false,
      "inputs": [
        {
          "indexed": true,
          "internalType": "address",
          "name": "owner",
          "type": "address"
        },
        {
          "indexed": true,
          "internalType": "address",
          "name": "operator",
          "type": "address"
        },
        {
          "indexed": false,
          "internalType": "bool",
          "name": "approved",
          "type": "bool"
        }
      ],
      "name": "ApprovalForAll",
      "type": "event"
    },
    {
      "anonymous": false,
      "inputs": [
        {
          "indexed": true,
          "internalType": "address",
          "name": "previousOwner",
          "type": "address"
        },
        {
          "indexed": true,
          "internalType": "address",
          "name": "newOwner",
          "type": "address"
        }
      ],
      "name": "OwnershipTransferred",
      "type": "event"
    },
    {
      "anonymous": false,
      "inputs": [
        {
          "indexed": true,
          "internalType": "address",
          "name": "from",
          "type": "address"
        },
        {
          "indexed": true,
          "internalType": "address",
          "name": "to",
          "type": "address"
        },
        {
          "indexed": true,
          "internalType": "uint256",
          "name": "tokenId",
          "type": "uint256"
        }
      ],
      "name": "Transfer",
      "type": "event"
    },
    {
      "inputs": [
        {
          "internalType": "address",
          "name": "to",
          "type": "address"
        },
        {
          "internalType": "uint256",
          "name": "tokenId",
          "type": "uint256"
        }
      ],
      "name": "approve",
      "outputs": [],
      "stateMutability": "nonpayable",
      "type": "function"
    },
    {
      "inputs": [
        {
          "internalType": "address",
          "name": "owner",
          "type": "address"
        }
      ],
      "name": "balanceOf",
      "outputs": [
        {
          "internalType": "uint256",
          "name": "",
          "type": "uint256"
        }
      ],
      "stateMutability": "view",
      "type": "function"
    },
    {
      "inputs": [
        {
          "internalType": "uint256",
          "name": "tokenId",
          "type": "uint256"
        }
      ],
      "name": "getApproved",
      "outputs": [
        {
          "internalType": "address",
          "name": "",
          "type": "address"
        }
      ],
      "stateMutability": "view",
      "type": "function"
    },
    {
      "inputs": [
        {
          "internalType": "address",
          "name": "owner",
          "type": "address"
        },
        {
          "internalType": "address",
          "name": "operator",
          "type": "address"
        }
      ],
      "name": "isApprovedForAll",
      "outputs": [
        {
          "internalType": "bool",
          "name": "",
          "type": "bool"
        }
      ],
      "stateMutability": "view",
      "type": "function"
    },
    {
      "inputs": [],
      "name": "name",
      "outputs": [
        {
          "internalType": "string",
          "name": "",
          "type": "string"
        }
      ],
      "stateMutability": "view",
      "type": "function"
    },
    {
      "inputs": [],
      "name": "owner",
      "outputs": [
        {
          "internalType": "address",
          "name": "",
          "type": "address"
        }
      ],
      "stateMutability": "view",
      "type": "function"
    },
    {
      "inputs": [
        {
          "internalType": "uint256",
          "name": "tokenId",
          "type": "uint256"
        }
      ],
      "name": "ownerOf",
      "outputs": [
        {
          "internalType": "address",
          "name": "",
          "type": "address"
        }
      ],
      "stateMutability": "view",
      "type": "function"
    },
    {
      "inputs": [],
      "name": "renounceOwnership",
      "outputs": [],
      "stateMutability": "nonpayable",
      "type": "function"
    },
    {
      "inputs": [
        {
          "internalType": "address",
          "name": "from",
          "type": "address"
        },
        {
          "internalType": "address",
          "name": "to",
          "type": "address"
        },
        {
          "internalType": "uint256",
          "name": "tokenId",
          "type": "uint256"
        }
      ],
      "name": "safeTransferFrom",
      "outputs": [],
      "stateMutability": "nonpayable",
      "type": "function"
    },
    {
      "inputs": [
        {
          "internalType": "address",
          "name": "from",
          "type": "address"
        },
        {
          "internalType": "address",
          "name": "to",
          "type": "address"
        },
        {
          "internalType": "uint256",
          "name": "tokenId",
          "type": "uint256"
        },
        {
          "internalType": "bytes",
          "name": "_data",
          "type": "bytes"
        }
      ],
      "name": "safeTransferFrom",
      "outputs": [],
      "stateMutability": "nonpayable",
      "type": "function"
    },
    {
      "inputs": [
        {
          "internalType": "address",
          "name": "operator",
          "type": "address"
        },
        {
          "internalType": "bool",
          "name": "approved",
          "type": "bool"
        }
      ],
      "name": "setApprovalForAll",
      "outputs": [],
      "stateMutability": "nonpayable",
      "type": "function"
    },
    {
      "inputs": [
        {
          "internalType": "bytes4",
          "name": "interfaceId",
          "type": "bytes4"
        }
      ],
      "name": "supportsInterface",
      "outputs": [
        {
          "internalType": "bool",
          "name": "",
          "type": "bool"
        }
      ],
      "stateMutability": "view",
      "type": "function"
    },
    {
      "inputs": [],
      "name": "symbol",
      "outputs": [
        {
          "internalType": "string",
          "name": "",
          "type": "string"
        }
      ],
      "stateMutability": "view",
      "type": "function"
    },
    {
      "inputs": [
        {
          "internalType": "uint256",
          "name": "tokenId",
          "type": "uint256"
        }
      ],
      "name": "tokenURI",
      "outputs": [
        {
          "internalType": "string",
          "name": "",
          "type": "string"
        }
      ],
      "stateMutability": "view",
      "type": "function"
    },
    {
      "inputs": [
        {
          "internalType": "address",
          "name": "from",
          "type": "address"
        },
        {
          "internalType": "address",
          "name": "to",
          "type": "address"
        },
        {
          "internalType": "uint256",
          "name": "tokenId",
          "type": "uint256"
        }
      ],
      "name": "transferFrom",
      "outputs": [],
      "stateMutability": "nonpayable",
      "type": "function"
    },
    {
      "inputs": [
        {
          "internalType": "address",
          "name": "newOwner",
          "type": "address"
        }
      ],
      "name": "transferOwnership",
      "outputs": [],
      "stateMutability": "nonpayable",
      "type": "function"
    },
    {
      "inputs": [],
      "name": "totalSupply",
      "outputs": [
        {
          "internalType": "uint16",
          "name": "",
          "type": "uint16"
        }
      ],
      "stateMutability": "pure",
      "type": "function"
    },
    {
      "inputs": [],
      "name": "tokensPerDrop",
      "outputs": [
        {
          "internalType": "uint16",
          "name": "",
          "type": "uint16"
        }
      ],
      "stateMutability": "pure",
      "type": "function"
    },
    {
      "inputs": [
        {
          "internalType": "address",
          "name": "bugOwner",
          "type": "address"
        }
      ],
      "name": "getLadybugIdsByOwner",
      "outputs": [
        {
          "internalType": "uint256[]",
          "name": "",
          "type": "uint256[]"
        }
      ],
      "stateMutability": "view",
      "type": "function"
    }
  ],
  "bytecode": "0x6080604052600780546001600160a01b031916733254c065f85167003f165e134a391a6ec2c262791790553480156200003757600080fd5b506040518060400160405280600d81526020016c2630b23cb13ab3902837bbb2b960991b815250604051806040016040528060078152602001664c41445942554760c81b8152506200009862000092620000cc60201b60201c565b620000d0565b8151620000ad90600190602085019062000120565b508051620000c390600290602084019062000120565b50505062000203565b3390565b600080546001600160a01b038381166001600160a01b0319831681178455604051919092169283917f8be0079c531659141344cd1fd0a4f28419497f9722a3daafe3b4186f6b6457e09190a35050565b8280546200012e90620001c6565b90600052602060002090601f0160209004810192826200015257600085556200019d565b82601f106200016d57805160ff19168380011785556200019d565b828001600101855582156200019d579182015b828111156200019d57825182559160200191906001019062000180565b50620001ab929150620001af565b5090565b5b80821115620001ab5760008155600101620001b0565b600181811c90821680620001db57607f821691505b60208210811415620001fd57634e487b7160e01b600052602260045260246000fd5b50919050565b61189b80620002136000396000f3fe608060405234801561001057600080fd5b50600436106101515760003560e01c806370a08231116100cd578063b88d4fde11610081578063e985e9c511610066578063e985e9c5146102a6578063f2fde38b146102e2578063f925fa87146102f557600080fd5b8063b88d4fde14610280578063c87b56dd1461029357600080fd5b80638da5cb5b116100b25780638da5cb5b1461025457806395d89b4114610265578063a22cb4651461026d57600080fd5b806370a082311461022b578063715018a61461024c57600080fd5b806318160ddd1161012457806342842e0e1161010957806342842e0e146101fd578063508fb73b146102105780636352211e1461021857600080fd5b806318160ddd146101d357806323b872dd146101ea57600080fd5b806301ffc9a71461015657806306fdde031461017e578063081812fc14610193578063095ea7b3146101be575b600080fd5b610169610164366004611388565b610315565b60405190151581526020015b60405180910390f35b6101866103b2565b60405161017591906113fd565b6101a66101a1366004611410565b610444565b6040516001600160a01b039091168152602001610175565b6101d16101cc366004611445565b6104de565b005b6104605b60405161ffff9091168152602001610175565b6101d16101f836600461146f565b610610565b6101d161020b36600461146f565b610697565b6101d76106b2565b6101a6610226366004611410565b6106dd565b61023e6102393660046114ab565b610768565b604051908152602001610175565b6101d1610802565b6000546001600160a01b03166101a6565b610186610868565b6101d161027b3660046114c6565b610877565b6101d161028e366004611518565b610886565b6101866102a1366004611410565b610914565b6101696102b43660046115f4565b6001600160a01b03918216600090815260066020908152604080832093909416825291909152205460ff1690565b6101d16102f03660046114ab565b610a0a565b6103086103033660046114ab565b610aec565b6040516101759190611627565b60006001600160e01b031982167f80ac58cd00000000000000000000000000000000000000000000000000000000148061037857506001600160e01b031982167f5b5e139f00000000000000000000000000000000000000000000000000000000145b806103ac57507f01ffc9a7000000000000000000000000000000000000000000000000000000006001600160e01b03198316145b92915050565b6060600180546103c19061166b565b80601f01602080910402602001604051908101604052809291908181526020018280546103ed9061166b565b801561043a5780601f1061040f5761010080835404028352916020019161043a565b820191906000526020600020905b81548152906001019060200180831161041d57829003601f168201915b5050505050905090565b6000818152600360205260408120546001600160a01b03166104c25760405162461bcd60e51b815260206004820152602c60248201527f4552433732313a20617070726f76656420717565727920666f72206e6f6e657860448201526b34b9ba32b73a103a37b5b2b760a11b60648201526084015b60405180910390fd5b506000908152600560205260409020546001600160a01b031690565b60006104e9826106dd565b9050806001600160a01b0316836001600160a01b031614156105735760405162461bcd60e51b815260206004820152602160248201527f4552433732313a20617070726f76616c20746f2063757272656e74206f776e6560448201527f720000000000000000000000000000000000000000000000000000000000000060648201526084016104b9565b336001600160a01b038216148061058f575061058f81336102b4565b6106015760405162461bcd60e51b815260206004820152603860248201527f4552433732313a20617070726f76652063616c6c6572206973206e6f74206f7760448201527f6e6572206e6f7220617070726f76656420666f7220616c6c000000000000000060648201526084016104b9565b61060b8383610beb565b505050565b61061a3382610c66565b61068c5760405162461bcd60e51b815260206004820152603160248201527f4552433732313a207472616e736665722063616c6c6572206973206e6f74206f60448201527f776e6572206e6f7220617070726f76656400000000000000000000000000000060648201526084016104b9565b61060b838383610d5d565b61060b83838360405180602001604052806000815250610886565b600060046106c2602060406116bc565b6106ce906104606116e2565b6106d8919061171b565b905090565b6000818152600360205260408120546001600160a01b0316806103ac5760405162461bcd60e51b815260206004820152602960248201527f4552433732313a206f776e657220717565727920666f72206e6f6e657869737460448201527f656e7420746f6b656e000000000000000000000000000000000000000000000060648201526084016104b9565b60006001600160a01b0382166107e65760405162461bcd60e51b815260206004820152602a60248201527f4552433732313a2062616c616e636520717565727920666f7220746865207a6560448201527f726f20616464726573730000000000000000000000000000000000000000000060648201526084016104b9565b506001600160a01b031660009081526004602052604090205490565b6000546001600160a01b0316331461085c5760405162461bcd60e51b815260206004820181905260248201527f4f776e61626c653a2063616c6c6572206973206e6f7420746865206f776e657260448201526064016104b9565b6108666000610f37565b565b6060600280546103c19061166b565b610882338383610f94565b5050565b6108903383610c66565b6109025760405162461bcd60e51b815260206004820152603160248201527f4552433732313a207472616e736665722063616c6c6572206973206e6f74206f60448201527f776e6572206e6f7220617070726f76656400000000000000000000000000000060648201526084016104b9565b61090e84848484611063565b50505050565b6000818152600360205260409020546060906001600160a01b03166109a15760405162461bcd60e51b815260206004820152602f60248201527f4552433732314d657461646174613a2055524920717565727920666f72206e6f60448201527f6e6578697374656e7420746f6b656e000000000000000000000000000000000060648201526084016104b9565b60006109b860408051602081019091526000815290565b905060008151116109d85760405180602001604052806000815250610a03565b806109e2846110ec565b6040516020016109f392919061173c565b6040516020818303038152906040525b9392505050565b6000546001600160a01b03163314610a645760405162461bcd60e51b815260206004820181905260248201527f4f776e61626c653a2063616c6c6572206973206e6f7420746865206f776e657260448201526064016104b9565b6001600160a01b038116610ae05760405162461bcd60e51b815260206004820152602660248201527f4f776e61626c653a206e6577206f776e657220697320746865207a65726f206160448201527f646472657373000000000000000000000000000000000000000000000000000060648201526084016104b9565b610ae981610f37565b50565b60606000610af983610768565b67ffffffffffffffff811115610b1157610b11611502565b604051908082528060200260200182016040528015610b3a578160200160208202803683370190505b509050600060015b61046061ffff821611610be25761ffff81166000908152600360205260409020546001600160a01b031615158015610b975750846001600160a01b0316610b8c8261ffff166106dd565b6001600160a01b0316145b15610bd0578061ffff16838361ffff1681518110610bb757610bb7611762565b602090810291909101015281610bcc81611778565b9250505b80610bda81611778565b915050610b42565b50909392505050565b6000818152600560205260409020805473ffffffffffffffffffffffffffffffffffffffff19166001600160a01b0384169081179091558190610c2d826106dd565b6001600160a01b03167f8c5be1e5ebec7d5bd14f71427d1e84f3dd0314c0f7b2291e5b200ac8c7c3b92560405160405180910390a45050565b6000818152600360205260408120546001600160a01b0316610cdf5760405162461bcd60e51b815260206004820152602c60248201527f4552433732313a206f70657261746f7220717565727920666f72206e6f6e657860448201526b34b9ba32b73a103a37b5b2b760a11b60648201526084016104b9565b6000610cea836106dd565b9050806001600160a01b0316846001600160a01b03161480610d255750836001600160a01b0316610d1a84610444565b6001600160a01b0316145b80610d5557506001600160a01b0380821660009081526006602090815260408083209388168352929052205460ff165b949350505050565b826001600160a01b0316610d70826106dd565b6001600160a01b031614610dec5760405162461bcd60e51b815260206004820152602960248201527f4552433732313a207472616e73666572206f6620746f6b656e2074686174206960448201527f73206e6f74206f776e000000000000000000000000000000000000000000000060648201526084016104b9565b6001600160a01b038216610e675760405162461bcd60e51b8152602060048201526024808201527f4552433732313a207472616e7366657220746f20746865207a65726f2061646460448201527f726573730000000000000000000000000000000000000000000000000000000060648201526084016104b9565b610e72600082610beb565b6001600160a01b0383166000908152600460205260408120805460019290610e9b90849061179a565b90915550506001600160a01b0382166000908152600460205260408120805460019290610ec99084906117b1565b9091555050600081815260036020526040808220805473ffffffffffffffffffffffffffffffffffffffff19166001600160a01b0386811691821790925591518493918716917fddf252ad1be2c89b69c2b068fc378daa952ba7f163c4a11628f55a4df523b3ef91a4505050565b600080546001600160a01b0383811673ffffffffffffffffffffffffffffffffffffffff19831681178455604051919092169283917f8be0079c531659141344cd1fd0a4f28419497f9722a3daafe3b4186f6b6457e09190a35050565b816001600160a01b0316836001600160a01b03161415610ff65760405162461bcd60e51b815260206004820152601960248201527f4552433732313a20617070726f766520746f2063616c6c65720000000000000060448201526064016104b9565b6001600160a01b03838116600081815260066020908152604080832094871680845294825291829020805460ff191686151590811790915591519182527f17307eab39ab6107e8899845ad3d59bd9653f200f220920489ca2b5937696c31910160405180910390a3505050565b61106e848484610d5d565b61107a8484848461121e565b61090e5760405162461bcd60e51b815260206004820152603260248201527f4552433732313a207472616e7366657220746f206e6f6e20455243373231526560448201527f63656976657220696d706c656d656e746572000000000000000000000000000060648201526084016104b9565b60608161112c57505060408051808201909152600181527f3000000000000000000000000000000000000000000000000000000000000000602082015290565b8160005b81156111565780611140816117c9565b915061114f9050600a836117e4565b9150611130565b60008167ffffffffffffffff81111561117157611171611502565b6040519080825280601f01601f19166020018201604052801561119b576020820181803683370190505b5090505b8415610d55576111b060018361179a565b91506111bd600a866117f8565b6111c89060306117b1565b60f81b8183815181106111dd576111dd611762565b60200101907effffffffffffffffffffffffffffffffffffffffffffffffffffffffffffff1916908160001a905350611217600a866117e4565b945061119f565b60006001600160a01b0384163b1561136757604051630a85bd0160e11b81526001600160a01b0385169063150b7a029061126290339089908890889060040161180c565b6020604051808303816000875af192505050801561129d575060408051601f3d908101601f1916820190925261129a91810190611848565b60015b61134d573d8080156112cb576040519150601f19603f3d011682016040523d82523d6000602084013e6112d0565b606091505b5080516113455760405162461bcd60e51b815260206004820152603260248201527f4552433732313a207472616e7366657220746f206e6f6e20455243373231526560448201527f63656976657220696d706c656d656e746572000000000000000000000000000060648201526084016104b9565b805181602001fd5b6001600160e01b031916630a85bd0160e11b149050610d55565b506001949350505050565b6001600160e01b031981168114610ae957600080fd5b60006020828403121561139a57600080fd5b8135610a0381611372565b60005b838110156113c05781810151838201526020016113a8565b8381111561090e5750506000910152565b600081518084526113e98160208601602086016113a5565b601f01601f19169290920160200192915050565b602081526000610a0360208301846113d1565b60006020828403121561142257600080fd5b5035919050565b80356001600160a01b038116811461144057600080fd5b919050565b6000806040838503121561145857600080fd5b61146183611429565b946020939093013593505050565b60008060006060848603121561148457600080fd5b61148d84611429565b925061149b60208501611429565b9150604084013590509250925092565b6000602082840312156114bd57600080fd5b610a0382611429565b600080604083850312156114d957600080fd5b6114e283611429565b9150602083013580151581146114f757600080fd5b809150509250929050565b634e487b7160e01b600052604160045260246000fd5b6000806000806080858703121561152e57600080fd5b61153785611429565b935061154560208601611429565b925060408501359150606085013567ffffffffffffffff8082111561156957600080fd5b818701915087601f83011261157d57600080fd5b81358181111561158f5761158f611502565b604051601f8201601f19908116603f011681019083821181831017156115b7576115b7611502565b816040528281528a60208487010111156115d057600080fd5b82602086016020830137600060208483010152809550505050505092959194509250565b6000806040838503121561160757600080fd5b61161083611429565b915061161e60208401611429565b90509250929050565b6020808252825182820181905260009190848201906040850190845b8181101561165f57835183529284019291840191600101611643565b50909695505050505050565b600181811c9082168061167f57607f821691505b602082108114156116a057634e487b7160e01b600052602260045260246000fd5b50919050565b634e487b7160e01b600052601160045260246000fd5b600061ffff8083168185168083038211156116d9576116d96116a6565b01949350505050565b600061ffff838116908316818110156116fd576116fd6116a6565b039392505050565b634e487b7160e01b600052601260045260246000fd5b600061ffff8084168061173057611730611705565b92169190910492915050565b6000835161174e8184602088016113a5565b8351908301906116d98183602088016113a5565b634e487b7160e01b600052603260045260246000fd5b600061ffff80831681811415611790576117906116a6565b6001019392505050565b6000828210156117ac576117ac6116a6565b500390565b600082198211156117c4576117c46116a6565b500190565b60006000198214156117dd576117dd6116a6565b5060010190565b6000826117f3576117f3611705565b500490565b60008261180757611807611705565b500690565b60006001600160a01b0380871683528086166020840152508360408301526080606083015261183e60808301846113d1565b9695505050505050565b60006020828403121561185a57600080fd5b8151610a038161137256fea26469706673582212203032fd070efcbbb613e92ea15631fef5c885ca49b94bdb1be594eaca4528e4ad64736f6c634300080a0033",
  "immutableReferences": {},
  "source": "// The tokens of this contract are licensed under a Creative Commons Attribution-NonCommercial-ShareAlike 4.0 International License (https://creativecommons.org/licenses/by-nc-sa/4.0/)\n// SPDX-License-Identifier:  CC-BY-NC-SA-4.0\npragma solidity ^0.8.0;\n\nimport \"@openzeppelin/contracts/token/ERC721/ERC721.sol\";\nimport \"@openzeppelin/contracts/access/Ownable.sol\";\nimport \"@openzeppelin/contracts/utils/Counters.sol\";\n\n\n/**\n * @author WrightCode\n * @title Ladybug Factory\n * @dev The base-layer data for the Ladybug ERC721 tokens.\n *\n * This is my first implementation of a smart contract in Solidity.  It's gone thru quite\n * a few iterations as I learn my way around the system, gas expenses, and fine tuning the\n * \"expectations\" of the contract.\n *\n * I do consider this somehwat of a \"reference implementation\".  It's far from\n * perfect and the trade-offs made were to enjoy the process, stay well within \"budget\",\n * yet provide as fair a minting process as the scope allowed.\n *\n * I could have easily continued down the rabbit hole of tuning and features, at the expense\n * of my own ETH and time, but at some point the goal remained:\n *\n *    A) Share the artwork, the ladybugs are ready to fly\n *    B) Deliever a contract for talking points with future projects.\n *    C) Learn and have fun doing so.\n *\n * If you decide to participate in the minting process or otherwise engage in this project\n * I hope you do so for fun and enjoy the bugs.\n *  */\ncontract LadybugFactory is Ownable, ERC721 {\n\n    address internal _developmentTeamAddress = 0x3254C065f85167003F165E134A391a6ec2c26279;\n\n    using Counters for Counters.Counter;\n    Counters.Counter private _tokenIds;\n\n    uint16 internal constant _MAX_LADYBUGS = 1120;\n    uint16 internal constant _RESERVED_LADYBUGS_DEVELOPMENT = 64;\n    uint16 internal constant _RESERVED_LADYBUGS_OWNER = 32;\n\n    uint16 internal constant _RESERVED_LADYBUGS = _RESERVED_LADYBUGS_DEVELOPMENT + _RESERVED_LADYBUGS_OWNER;\n    uint16 internal constant _TOKENS_PER_DROP = (_MAX_LADYBUGS - _RESERVED_LADYBUGS) / 4;\n\n    struct Drop {\n        uint256 price;        // needs to be in wei (eth * 10^18)\n        uint256 date;         // uint in seconds since epoch\n        uint256 priceDate;   // date the current price went into effect\n        uint16 startAtIndex; // the ladybugs index at which this drop would begin\n    }\n\n    /**\n        There will be four drops.  Price & date can be configured by owner.\n\n        The next four will each be (_MAX_LADYBUGS - _RESERVED_LADYBUGS)/4 ladybugs,\n        with a configurable drop date and price.\n     */\n    Drop[4] internal drops;\n\n    /**\n     * @dev There are four drops, 1-4 in the drops array.\n     */\n    constructor() ERC721(\"Ladybug Power\", \"LADYBUG\") {\n    }\n\n    /**\n     * @dev The total supply of all ladybug tokens.\n     */\n    function totalSupply() external pure returns (uint16) {\n        return _MAX_LADYBUGS;\n    }\n\n    /**\n     * @dev Constant, number of tokens per drop.\n     */\n    function tokensPerDrop() external pure returns (uint16) {\n        return _TOKENS_PER_DROP;\n    }\n\n    /**\n     * @dev Return array of ladybug token Ids owned by the address.\n     */\n    function getLadybugIdsByOwner(address bugOwner) external view returns(uint[] memory) {\n        uint[] memory result = new uint[](balanceOf(bugOwner));\n        uint16 counter = 0;\n        for (uint16 i = 1; i <= _MAX_LADYBUGS; i++) {\n            if (_exists(i) && ownerOf(i) == bugOwner) {\n                result[counter] = i;\n                counter++;\n            }\n        }\n        return result;\n    }\n\n    /**\n     * @dev Increment the current supply index by one.\n     */\n    function _incrementCurrentSupplyIndex() internal {\n        _tokenIds.increment();\n    }\n\n    /**\n     * @dev The index of the next mint from the supply. Aka, current mint position.\n     */\n    function _currentSupplyIndex() internal view returns (uint) {\n        return _tokenIds.current();\n    }\n\n}\n",
  "sourcePath": "/Users/jwright/Development/ladybugs/contracts/LadybugFactory.sol",
  "compiler": {
    "name": "solc",
    "version": "0.8.10+commit.fc410830.Emscripten.clang"
  },
  "schemaVersion": "3.4.4",
  "updatedAt": "2022-03-05T14:55:00.258Z",
  "devdoc": {
    "author": "WrightCode",
    "details": "The base-layer data for the Ladybug ERC721 tokens. This is my first implementation of a smart contract in Solidity.  It's gone thru quite a few iterations as I learn my way around the system, gas expenses, and fine tuning the \"expectations\" of the contract. I do consider this somehwat of a \"reference implementation\".  It's far from perfect and the trade-offs made were to enjoy the process, stay well within \"budget\", yet provide as fair a minting process as the scope allowed. I could have easily continued down the rabbit hole of tuning and features, at the expense of my own ETH and time, but at some point the goal remained:    A) Share the artwork, the ladybugs are ready to fly    B) Deliever a contract for talking points with future projects.    C) Learn and have fun doing so. If you decide to participate in the minting process or otherwise engage in this project I hope you do so for fun and enjoy the bugs.  ",
    "kind": "dev",
    "methods": {
      "approve(address,uint256)": {
        "details": "See {IERC721-approve}."
      },
      "balanceOf(address)": {
        "details": "See {IERC721-balanceOf}."
      },
      "constructor": {
        "details": "There are four drops, 1-4 in the drops array."
      },
      "getApproved(uint256)": {
        "details": "See {IERC721-getApproved}."
      },
      "getLadybugIdsByOwner(address)": {
        "details": "Return array of ladybug token Ids owned by the address."
      },
      "isApprovedForAll(address,address)": {
        "details": "See {IERC721-isApprovedForAll}."
      },
      "name()": {
        "details": "See {IERC721Metadata-name}."
      },
      "owner()": {
        "details": "Returns the address of the current owner."
      },
      "ownerOf(uint256)": {
        "details": "See {IERC721-ownerOf}."
      },
      "renounceOwnership()": {
        "details": "Leaves the contract without owner. It will not be possible to call `onlyOwner` functions anymore. Can only be called by the current owner. NOTE: Renouncing ownership will leave the contract without an owner, thereby removing any functionality that is only available to the owner."
      },
      "safeTransferFrom(address,address,uint256)": {
        "details": "See {IERC721-safeTransferFrom}."
      },
      "safeTransferFrom(address,address,uint256,bytes)": {
        "details": "See {IERC721-safeTransferFrom}."
      },
      "setApprovalForAll(address,bool)": {
        "details": "See {IERC721-setApprovalForAll}."
      },
      "supportsInterface(bytes4)": {
        "details": "See {IERC165-supportsInterface}."
      },
      "symbol()": {
        "details": "See {IERC721Metadata-symbol}."
      },
      "tokenURI(uint256)": {
        "details": "See {IERC721Metadata-tokenURI}."
      },
      "tokensPerDrop()": {
        "details": "Constant, number of tokens per drop."
      },
      "totalSupply()": {
        "details": "The total supply of all ladybug tokens."
      },
      "transferFrom(address,address,uint256)": {
        "details": "See {IERC721-transferFrom}."
      },
      "transferOwnership(address)": {
        "details": "Transfers ownership of the contract to a new account (`newOwner`). Can only be called by the current owner."
      }
    },
    "title": "Ladybug Factory",
    "version": 1
  },
  "userdoc": {
    "kind": "user",
    "methods": {},
    "version": 1
  }
}